{
  "_format": "hh-sol-artifact-1",
  "contractName": "SmartFidget",
  "sourceName": "contracts/SmartFidget.sol",
  "abi": [
    {
      "inputs": [],
      "stateMutability": "nonpayable",
      "type": "constructor"
    },
    {
      "anonymous": false,
      "inputs": [
        {
          "indexed": false,
          "internalType": "uint256",
          "name": "recordId",
          "type": "uint256"
        }
      ],
      "name": "RecordAdded",
      "type": "event"
    },
    {
      "anonymous": false,
      "inputs": [
        {
          "indexed": false,
          "internalType": "string",
          "name": "date",
          "type": "string"
        },
        {
          "indexed": false,
          "internalType": "uint256",
          "name": "sessionId",
          "type": "uint256"
        }
      ],
      "name": "SessionAdded",
      "type": "event"
    },
    {
      "inputs": [
        {
          "internalType": "uint16",
          "name": "_avg",
          "type": "uint16"
        },
        {
          "internalType": "uint16",
          "name": "_min",
          "type": "uint16"
        },
        {
          "internalType": "uint16",
          "name": "_max",
          "type": "uint16"
        },
        {
          "internalType": "uint16",
          "name": "_sessionCount",
          "type": "uint16"
        },
        {
          "internalType": "uint256",
          "name": "_totDuration",
          "type": "uint256"
        },
        {
          "internalType": "string",
          "name": "_main",
          "type": "string"
        },
        {
          "internalType": "string",
          "name": "_date",
          "type": "string"
        }
      ],
      "name": "addRecord",
      "outputs": [],
      "stateMutability": "nonpayable",
      "type": "function"
    },
    {
      "inputs": [
        {
          "internalType": "uint16",
          "name": "_avg",
          "type": "uint16"
        },
        {
          "internalType": "uint16",
          "name": "_min",
          "type": "uint16"
        },
        {
          "internalType": "uint16",
          "name": "_max",
          "type": "uint16"
        },
        {
          "internalType": "uint16",
          "name": "_id",
          "type": "uint16"
        },
        {
          "internalType": "uint256",
          "name": "_duration",
          "type": "uint256"
        },
        {
          "internalType": "string",
          "name": "_main",
          "type": "string"
        },
        {
          "internalType": "string",
          "name": "_date",
          "type": "string"
        },
        {
          "internalType": "string",
          "name": "_startTime",
          "type": "string"
        },
        {
          "internalType": "string",
          "name": "_endTime",
          "type": "string"
        },
        {
          "internalType": "string[]",
          "name": "_tags",
          "type": "string[]"
        },
        {
          "internalType": "string",
          "name": "_comment",
          "type": "string"
        }
      ],
      "name": "addSession",
      "outputs": [],
      "stateMutability": "nonpayable",
      "type": "function"
    },
    {
      "inputs": [
        {
          "internalType": "uint256",
          "name": "recordId",
          "type": "uint256"
        }
      ],
      "name": "getRecord",
      "outputs": [
        {
          "internalType": "address",
          "name": "writer",
          "type": "address"
        },
        {
          "internalType": "uint16",
          "name": "avg",
          "type": "uint16"
        },
        {
          "internalType": "uint16",
          "name": "min",
          "type": "uint16"
        },
        {
          "internalType": "uint16",
          "name": "max",
          "type": "uint16"
        },
        {
          "internalType": "uint16",
          "name": "sessionCount",
          "type": "uint16"
        },
        {
          "internalType": "uint256",
          "name": "totDuration",
          "type": "uint256"
        },
        {
          "internalType": "string",
          "name": "main",
          "type": "string"
        },
        {
          "internalType": "string",
          "name": "date",
          "type": "string"
        }
      ],
      "stateMutability": "view",
      "type": "function"
    },
    {
      "inputs": [],
      "name": "getRecordsCount",
      "outputs": [
        {
          "internalType": "uint256",
          "name": "",
          "type": "uint256"
        }
      ],
      "stateMutability": "view",
      "type": "function"
    },
    {
      "inputs": [
        {
          "internalType": "uint16",
          "name": "_id",
          "type": "uint16"
        },
        {
          "internalType": "string",
          "name": "_date",
          "type": "string"
        }
      ],
      "name": "getSession",
      "outputs": [
        {
          "internalType": "uint16",
          "name": "avg",
          "type": "uint16"
        },
        {
          "internalType": "uint16",
          "name": "min",
          "type": "uint16"
        },
        {
          "internalType": "uint16",
          "name": "max",
          "type": "uint16"
        },
        {
          "internalType": "uint16",
          "name": "id",
          "type": "uint16"
        },
        {
          "internalType": "uint256",
          "name": "duration",
          "type": "uint256"
        },
        {
          "internalType": "string",
          "name": "main",
          "type": "string"
        },
        {
          "internalType": "string",
          "name": "startTime",
          "type": "string"
        },
        {
          "internalType": "string",
          "name": "endTime",
          "type": "string"
        },
        {
          "internalType": "string[]",
          "name": "tags",
          "type": "string[]"
        },
        {
          "internalType": "string",
          "name": "comment",
          "type": "string"
        }
      ],
      "stateMutability": "view",
      "type": "function"
    },
    {
      "inputs": [],
      "name": "owner",
      "outputs": [
        {
          "internalType": "address",
          "name": "",
          "type": "address"
        }
      ],
      "stateMutability": "view",
      "type": "function"
    },
    {
      "inputs": [
        {
          "internalType": "uint256",
          "name": "",
          "type": "uint256"
        }
      ],
      "name": "records",
      "outputs": [
        {
          "internalType": "address",
          "name": "writer",
          "type": "address"
        },
        {
          "internalType": "uint16",
          "name": "avg",
          "type": "uint16"
        },
        {
          "internalType": "uint16",
          "name": "min",
          "type": "uint16"
        },
        {
          "internalType": "uint16",
          "name": "max",
          "type": "uint16"
        },
        {
          "internalType": "uint16",
          "name": "sessionCount",
          "type": "uint16"
        },
        {
          "internalType": "string",
          "name": "main",
          "type": "string"
        },
        {
          "internalType": "uint256",
          "name": "totDuration",
          "type": "uint256"
        },
        {
          "internalType": "string",
          "name": "date",
          "type": "string"
        }
      ],
      "stateMutability": "view",
      "type": "function"
    },
    {
      "inputs": [],
      "name": "recordsCount",
      "outputs": [
        {
          "internalType": "uint256",
          "name": "",
          "type": "uint256"
        }
      ],
      "stateMutability": "view",
      "type": "function"
    }
  ],
  "bytecode": "0x60a060405234801561001057600080fd5b503373ffffffffffffffffffffffffffffffffffffffff1660808173ffffffffffffffffffffffffffffffffffffffff1681525050608051611f2261006e60003960008181610a0901528181610c0e0152610c320152611f226000f3fe608060405234801561001057600080fd5b50600436106100885760003560e01c8063552bc9b51161005b578063552bc9b5146101525780638da5cb5b1461016e578063c36ef2d71461018c578063eb3dbf83146101a857610088565b806303e9e6091461008d57806332143d8a146100c457806334461067146100fd578063505158bb14610134575b600080fd5b6100a760048036038101906100a29190610fe0565b6101c6565b6040516100bb98979695949392919061110a565b60405180910390f35b6100de60048036038101906100d991906112f7565b6103f1565b6040516100f49a9998979695949392919061145f565b60405180910390f35b61011760048036038101906101129190610fe0565b61083a565b60405161012b98979695949392919061151e565b60405180910390f35b61013c6109fa565b60405161014991906115aa565b60405180910390f35b61016c600480360381019061016791906115c5565b610a07565b005b610176610c0c565b604051610183919061169f565b60405180910390f35b6101a660048036038101906101a191906117a0565b610c30565b005b6101b0610eb6565b6040516101bd91906115aa565b60405180910390f35b6000806000806000806060806001805490508910610219576040517f08c379a000000000000000000000000000000000000000000000000000000000815260040161021090611988565b60405180910390fd5b600060018a8154811061022f5761022e6119a8565b5b906000526020600020906004020190508060000160009054906101000a900473ffffffffffffffffffffffffffffffffffffffff168160000160149054906101000a900461ffff168260000160169054906101000a900461ffff168360000160189054906101000a900461ffff1684600001601a9054906101000a900461ffff16856002015486600101876003018180546102c990611a06565b80601f01602080910402602001604051908101604052809291908181526020018280546102f590611a06565b80156103425780601f1061031757610100808354040283529160200191610342565b820191906000526020600020905b81548152906001019060200180831161032557829003601f168201915b5050505050915080805461035590611a06565b80601f016020809104026020016040519081016040528092919081815260200182805461038190611a06565b80156103ce5780601f106103a3576101008083540402835291602001916103ce565b820191906000526020600020905b8154815290600101906020018083116103b157829003601f168201915b505050505090509850985098509850985098509850985050919395975091939597565b6000806000806000606080606080606060028b6040516104119190611a73565b9081526020016040518091039020805490508c61ffff1610610468576040517f08c379a000000000000000000000000000000000000000000000000000000000815260040161045f90611ad6565b60405180910390fd5b600060028c60405161047a9190611a73565b90815260200160405180910390208d61ffff168154811061049e5761049d6119a8565b5b906000526020600020906007020190508060000160009054906101000a900461ffff168160000160029054906101000a900461ffff168260000160049054906101000a900461ffff168360000160069054906101000a900461ffff168460010154856002018660030187600401886005018960060184805461051f90611a06565b80601f016020809104026020016040519081016040528092919081815260200182805461054b90611a06565b80156105985780601f1061056d57610100808354040283529160200191610598565b820191906000526020600020905b81548152906001019060200180831161057b57829003601f168201915b505050505094508380546105ab90611a06565b80601f01602080910402602001604051908101604052809291908181526020018280546105d790611a06565b80156106245780601f106105f957610100808354040283529160200191610624565b820191906000526020600020905b81548152906001019060200180831161060757829003601f168201915b5050505050935082805461063790611a06565b80601f016020809104026020016040519081016040528092919081815260200182805461066390611a06565b80156106b05780601f10610685576101008083540402835291602001916106b0565b820191906000526020600020905b81548152906001019060200180831161069357829003601f168201915b5050505050925081805480602002602001604051908101604052809291908181526020016000905b828210156107845783829060005260206000200180546106f790611a06565b80601f016020809104026020016040519081016040528092919081815260200182805461072390611a06565b80156107705780601f1061074557610100808354040283529160200191610770565b820191906000526020600020905b81548152906001019060200180831161075357829003601f168201915b5050505050815260200190600101906106d8565b50505050915080805461079690611a06565b80601f01602080910402602001604051908101604052809291908181526020018280546107c290611a06565b801561080f5780601f106107e45761010080835404028352916020019161080f565b820191906000526020600020905b8154815290600101906020018083116107f257829003601f168201915b505050505090509a509a509a509a509a509a509a509a509a509a50509295989b9194979a5092959850565b6001818154811061084a57600080fd5b90600052602060002090600402016000915090508060000160009054906101000a900473ffffffffffffffffffffffffffffffffffffffff16908060000160149054906101000a900461ffff16908060000160169054906101000a900461ffff16908060000160189054906101000a900461ffff169080600001601a9054906101000a900461ffff16908060010180546108e390611a06565b80601f016020809104026020016040519081016040528092919081815260200182805461090f90611a06565b801561095c5780601f106109315761010080835404028352916020019161095c565b820191906000526020600020905b81548152906001019060200180831161093f57829003601f168201915b50505050509080600201549080600301805461097790611a06565b80601f01602080910402602001604051908101604052809291908181526020018280546109a390611a06565b80156109f05780601f106109c5576101008083540402835291602001916109f0565b820191906000526020600020905b8154815290600101906020018083116109d357829003601f168201915b5050505050905088565b6000600180549050905090565b7f000000000000000000000000000000000000000000000000000000000000000073ffffffffffffffffffffffffffffffffffffffff163373ffffffffffffffffffffffffffffffffffffffff1614610a95576040517f08c379a0000000000000000000000000000000000000000000000000000000008152600401610a8c90611b42565b60405180910390fd5b6000600180816001815401808255809150500390600052602060002090600402019050338160000160006101000a81548173ffffffffffffffffffffffffffffffffffffffff021916908373ffffffffffffffffffffffffffffffffffffffff160217905550878160000160146101000a81548161ffff021916908361ffff160217905550868160000160166101000a81548161ffff021916908361ffff160217905550858160000160186101000a81548161ffff021916908361ffff1602179055508481600001601a6101000a81548161ffff021916908361ffff16021790555083816002018190555082816001019081610b919190611d0e565b5081816003019081610ba39190611d0e565b50600080815480929190610bb690611e0f565b91905055507fd1959b6f21a13d63764a45c846f4a58f7e55291fb17591ff1d1b3fd4c2953e4560018080549050610bed9190611e57565b604051610bfa91906115aa565b60405180910390a15050505050505050565b7f000000000000000000000000000000000000000000000000000000000000000081565b7f000000000000000000000000000000000000000000000000000000000000000073ffffffffffffffffffffffffffffffffffffffff163373ffffffffffffffffffffffffffffffffffffffff1614610cbe576040517f08c379a0000000000000000000000000000000000000000000000000000000008152600401610cb590611b42565b60405180910390fd5b60006040518061014001604052808d61ffff1681526020018c61ffff1681526020018b61ffff1681526020018a61ffff168152602001898152602001888152602001868152602001858152602001848152602001838152509050600286604051610d289190611a73565b908152602001604051809103902081908060018154018082558091505060019003906000526020600020906007020160009091909190915060008201518160000160006101000a81548161ffff021916908361ffff16021790555060208201518160000160026101000a81548161ffff021916908361ffff16021790555060408201518160000160046101000a81548161ffff021916908361ffff16021790555060608201518160000160066101000a81548161ffff021916908361ffff1602179055506080820151816001015560a0820151816002019081610e0b9190611d0e565b5060c0820151816003019081610e219190611d0e565b5060e0820151816004019081610e379190611d0e565b50610100820151816005019080519060200190610e55929190610ebc565b50610120820151816006019081610e6c9190611d0e565b5050507f83c340f8b0e7179e29631d50bd796527c5b1084dce9f1a6b9dc4cabae635dd29868a604051610ea0929190611ebc565b60405180910390a1505050505050505050505050565b60005481565b828054828255906000526020600020908101928215610f04579160200282015b82811115610f03578251829081610ef39190611d0e565b5091602001919060010190610edc565b5b509050610f119190610f15565b5090565b5b80821115610f355760008181610f2c9190610f39565b50600101610f16565b5090565b508054610f4590611a06565b6000825580601f10610f575750610f76565b601f016020900490600052602060002090810190610f759190610f79565b5b50565b5b80821115610f92576000816000905550600101610f7a565b5090565b6000604051905090565b600080fd5b600080fd5b6000819050919050565b610fbd81610faa565b8114610fc857600080fd5b50565b600081359050610fda81610fb4565b92915050565b600060208284031215610ff657610ff5610fa0565b5b600061100484828501610fcb565b91505092915050565b600073ffffffffffffffffffffffffffffffffffffffff82169050919050565b60006110388261100d565b9050919050565b6110488161102d565b82525050565b600061ffff82169050919050565b6110658161104e565b82525050565b61107481610faa565b82525050565b600081519050919050565b600082825260208201905092915050565b60005b838110156110b4578082015181840152602081019050611099565b60008484015250505050565b6000601f19601f8301169050919050565b60006110dc8261107a565b6110e68185611085565b93506110f6818560208601611096565b6110ff816110c0565b840191505092915050565b600061010082019050611120600083018b61103f565b61112d602083018a61105c565b61113a604083018961105c565b611147606083018861105c565b611154608083018761105c565b61116160a083018661106b565b81810360c083015261117381856110d1565b905081810360e083015261118781846110d1565b90509998505050505050505050565b61119f8161104e565b81146111aa57600080fd5b50565b6000813590506111bc81611196565b92915050565b600080fd5b600080fd5b7f4e487b7100000000000000000000000000000000000000000000000000000000600052604160045260246000fd5b611204826110c0565b810181811067ffffffffffffffff82111715611223576112226111cc565b5b80604052505050565b6000611236610f96565b905061124282826111fb565b919050565b600067ffffffffffffffff821115611262576112616111cc565b5b61126b826110c0565b9050602081019050919050565b82818337600083830152505050565b600061129a61129584611247565b61122c565b9050828152602081018484840111156112b6576112b56111c7565b5b6112c1848285611278565b509392505050565b600082601f8301126112de576112dd6111c2565b5b81356112ee848260208601611287565b91505092915050565b6000806040838503121561130e5761130d610fa0565b5b600061131c858286016111ad565b925050602083013567ffffffffffffffff81111561133d5761133c610fa5565b5b611349858286016112c9565b9150509250929050565b600081519050919050565b600082825260208201905092915050565b6000819050602082019050919050565b600082825260208201905092915050565b600061139b8261107a565b6113a5818561137f565b93506113b5818560208601611096565b6113be816110c0565b840191505092915050565b60006113d58383611390565b905092915050565b6000602082019050919050565b60006113f582611353565b6113ff818561135e565b9350836020820285016114118561136f565b8060005b8581101561144d578484038952815161142e85826113c9565b9450611439836113dd565b925060208a01995050600181019050611415565b50829750879550505050505092915050565b600061014082019050611475600083018d61105c565b611482602083018c61105c565b61148f604083018b61105c565b61149c606083018a61105c565b6114a9608083018961106b565b81810360a08301526114bb81886110d1565b905081810360c08301526114cf81876110d1565b905081810360e08301526114e381866110d1565b90508181036101008301526114f881856113ea565b905081810361012083015261150d81846110d1565b90509b9a5050505050505050505050565b600061010082019050611534600083018b61103f565b611541602083018a61105c565b61154e604083018961105c565b61155b606083018861105c565b611568608083018761105c565b81810360a083015261157a81866110d1565b905061158960c083018561106b565b81810360e083015261159b81846110d1565b90509998505050505050505050565b60006020820190506115bf600083018461106b565b92915050565b600080600080600080600060e0888a0312156115e4576115e3610fa0565b5b60006115f28a828b016111ad565b97505060206116038a828b016111ad565b96505060406116148a828b016111ad565b95505060606116258a828b016111ad565b94505060806116368a828b01610fcb565b93505060a088013567ffffffffffffffff81111561165757611656610fa5565b5b6116638a828b016112c9565b92505060c088013567ffffffffffffffff81111561168457611683610fa5565b5b6116908a828b016112c9565b91505092959891949750929550565b60006020820190506116b4600083018461103f565b92915050565b600067ffffffffffffffff8211156116d5576116d46111cc565b5b602082029050602081019050919050565b600080fd5b60006116fe6116f9846116ba565b61122c565b90508083825260208201905060208402830185811115611721576117206116e6565b5b835b8181101561176857803567ffffffffffffffff811115611746576117456111c2565b5b80860161175389826112c9565b85526020850194505050602081019050611723565b5050509392505050565b600082601f830112611787576117866111c2565b5b81356117978482602086016116eb565b91505092915050565b60008060008060008060008060008060006101608c8e0312156117c6576117c5610fa0565b5b60006117d48e828f016111ad565b9b505060206117e58e828f016111ad565b9a505060406117f68e828f016111ad565b99505060606118078e828f016111ad565b98505060806118188e828f01610fcb565b97505060a08c013567ffffffffffffffff81111561183957611838610fa5565b5b6118458e828f016112c9565b96505060c08c013567ffffffffffffffff81111561186657611865610fa5565b5b6118728e828f016112c9565b95505060e08c013567ffffffffffffffff81111561189357611892610fa5565b5b61189f8e828f016112c9565b9450506101008c013567ffffffffffffffff8111156118c1576118c0610fa5565b5b6118cd8e828f016112c9565b9350506101208c013567ffffffffffffffff8111156118ef576118ee610fa5565b5b6118fb8e828f01611772565b9250506101408c013567ffffffffffffffff81111561191d5761191c610fa5565b5b6119298e828f016112c9565b9150509295989b509295989b9093969950565b7f5265636f726420646f6573206e6f742065786973742e00000000000000000000600082015250565b6000611972601683611085565b915061197d8261193c565b602082019050919050565b600060208201905081810360008301526119a181611965565b9050919050565b7f4e487b7100000000000000000000000000000000000000000000000000000000600052603260045260246000fd5b7f4e487b7100000000000000000000000000000000000000000000000000000000600052602260045260246000fd5b60006002820490506001821680611a1e57607f821691505b602082108103611a3157611a306119d7565b5b50919050565b600081905092915050565b6000611a4d8261107a565b611a578185611a37565b9350611a67818560208601611096565b80840191505092915050565b6000611a7f8284611a42565b915081905092915050565b7f53657373696f6e20646f6573206e6f742065786973742e000000000000000000600082015250565b6000611ac0601783611085565b9150611acb82611a8a565b602082019050919050565b60006020820190508181036000830152611aef81611ab3565b9050919050565b7f556e617574686f72697a65642100000000000000000000000000000000000000600082015250565b6000611b2c600d83611085565b9150611b3782611af6565b602082019050919050565b60006020820190508181036000830152611b5b81611b1f565b9050919050565b60008190508160005260206000209050919050565b60006020601f8301049050919050565b600082821b905092915050565b600060088302611bc47fffffffffffffffffffffffffffffffffffffffffffffffffffffffffffffffff82611b87565b611bce8683611b87565b95508019841693508086168417925050509392505050565b6000819050919050565b6000611c0b611c06611c0184610faa565b611be6565b610faa565b9050919050565b6000819050919050565b611c2583611bf0565b611c39611c3182611c12565b848454611b94565b825550505050565b600090565b611c4e611c41565b611c59818484611c1c565b505050565b5b81811015611c7d57611c72600082611c46565b600181019050611c5f565b5050565b601f821115611cc257611c9381611b62565b611c9c84611b77565b81016020851015611cab578190505b611cbf611cb785611b77565b830182611c5e565b50505b505050565b600082821c905092915050565b6000611ce560001984600802611cc7565b1980831691505092915050565b6000611cfe8383611cd4565b9150826002028217905092915050565b611d178261107a565b67ffffffffffffffff811115611d3057611d2f6111cc565b5b611d3a8254611a06565b611d45828285611c81565b600060209050601f831160018114611d785760008415611d66578287015190505b611d708582611cf2565b865550611dd8565b601f198416611d8686611b62565b60005b82811015611dae57848901518255600182019150602085019450602081019050611d89565b86831015611dcb5784890151611dc7601f891682611cd4565b8355505b6001600288020188555050505b505050505050565b7f4e487b7100000000000000000000000000000000000000000000000000000000600052601160045260246000fd5b6000611e1a82610faa565b91507fffffffffffffffffffffffffffffffffffffffffffffffffffffffffffffffff8203611e4c57611e4b611de0565b5b600182019050919050565b6000611e6282610faa565b9150611e6d83610faa565b9250828203905081811115611e8557611e84611de0565b5b92915050565b6000611ea6611ea1611e9c8461104e565b611be6565b610faa565b9050919050565b611eb681611e8b565b82525050565b60006040820190508181036000830152611ed681856110d1565b9050611ee56020830184611ead565b939250505056fea26469706673582212203e08b1bbb667232dc94023f150a3539f64971cfea8d60c8779166dcf1b7d9c3564736f6c63430008180033",
  "linkReferences": {},
  "deployedLinkReferences": {}
}