{
  "_format": "hh-sol-artifact-1",
  "contractName": "SmartFidget",
  "sourceName": "contracts/SmartFidget.sol",
  "abi": [
    {
      "inputs": [],
      "stateMutability": "nonpayable",
      "type": "constructor"
    },
    {
      "anonymous": false,
      "inputs": [
        {
          "indexed": false,
          "internalType": "uint256",
          "name": "recordId",
          "type": "uint256"
        }
      ],
      "name": "RecordAdded",
      "type": "event"
    },
    {
      "anonymous": false,
      "inputs": [
        {
          "indexed": false,
          "internalType": "string",
          "name": "date",
          "type": "string"
        },
        {
          "indexed": false,
          "internalType": "uint256",
          "name": "sessionId",
          "type": "uint256"
        }
      ],
      "name": "SessionAdded",
      "type": "event"
    },
    {
      "inputs": [],
      "name": "addPermitted",
      "outputs": [],
      "stateMutability": "nonpayable",
      "type": "function"
    },
    {
      "inputs": [
        {
          "internalType": "uint16",
          "name": "_avg",
          "type": "uint16"
        },
        {
          "internalType": "uint16",
          "name": "_min",
          "type": "uint16"
        },
        {
          "internalType": "uint16",
          "name": "_max",
          "type": "uint16"
        },
        {
          "internalType": "uint16",
          "name": "_sessionCount",
          "type": "uint16"
        },
        {
          "internalType": "uint256",
          "name": "_totDuration",
          "type": "uint256"
        },
        {
          "internalType": "string",
          "name": "_main",
          "type": "string"
        },
        {
          "internalType": "string",
          "name": "_date",
          "type": "string"
        }
      ],
      "name": "addRecord",
      "outputs": [],
      "stateMutability": "nonpayable",
      "type": "function"
    },
    {
      "inputs": [
        {
          "internalType": "uint16",
          "name": "_avg",
          "type": "uint16"
        },
        {
          "internalType": "uint16",
          "name": "_min",
          "type": "uint16"
        },
        {
          "internalType": "uint16",
          "name": "_max",
          "type": "uint16"
        },
        {
          "internalType": "uint16",
          "name": "_id",
          "type": "uint16"
        },
        {
          "internalType": "uint256",
          "name": "_duration",
          "type": "uint256"
        },
        {
          "internalType": "string",
          "name": "_main",
          "type": "string"
        },
        {
          "internalType": "string",
          "name": "_date",
          "type": "string"
        },
        {
          "internalType": "string",
          "name": "_startTime",
          "type": "string"
        },
        {
          "internalType": "string",
          "name": "_endTime",
          "type": "string"
        },
        {
          "internalType": "string",
          "name": "_tags",
          "type": "string"
        },
        {
          "internalType": "string",
          "name": "_comment",
          "type": "string"
        }
      ],
      "name": "addSession",
      "outputs": [],
      "stateMutability": "nonpayable",
      "type": "function"
    },
    {
      "inputs": [
        {
          "internalType": "string",
          "name": "",
          "type": "string"
        },
        {
          "internalType": "uint256",
          "name": "",
          "type": "uint256"
        }
      ],
      "name": "dayToSessions",
      "outputs": [
        {
          "internalType": "uint16",
          "name": "avg",
          "type": "uint16"
        },
        {
          "internalType": "uint16",
          "name": "min",
          "type": "uint16"
        },
        {
          "internalType": "uint16",
          "name": "max",
          "type": "uint16"
        },
        {
          "internalType": "uint16",
          "name": "id",
          "type": "uint16"
        },
        {
          "internalType": "uint256",
          "name": "duration",
          "type": "uint256"
        },
        {
          "internalType": "string",
          "name": "main",
          "type": "string"
        },
        {
          "internalType": "string",
          "name": "startTime",
          "type": "string"
        },
        {
          "internalType": "string",
          "name": "endTime",
          "type": "string"
        },
        {
          "internalType": "string",
          "name": "tags",
          "type": "string"
        },
        {
          "internalType": "string",
          "name": "comment",
          "type": "string"
        }
      ],
      "stateMutability": "view",
      "type": "function"
    },
    {
      "inputs": [
        {
          "internalType": "uint256",
          "name": "recordId",
          "type": "uint256"
        }
      ],
      "name": "getRecord",
      "outputs": [
        {
          "internalType": "address",
          "name": "writer",
          "type": "address"
        },
        {
          "internalType": "uint16",
          "name": "avg",
          "type": "uint16"
        },
        {
          "internalType": "uint16",
          "name": "min",
          "type": "uint16"
        },
        {
          "internalType": "uint16",
          "name": "max",
          "type": "uint16"
        },
        {
          "internalType": "uint16",
          "name": "sessionCount",
          "type": "uint16"
        },
        {
          "internalType": "uint256",
          "name": "totDuration",
          "type": "uint256"
        },
        {
          "internalType": "string",
          "name": "main",
          "type": "string"
        },
        {
          "internalType": "string",
          "name": "date",
          "type": "string"
        }
      ],
      "stateMutability": "view",
      "type": "function"
    },
    {
      "inputs": [],
      "name": "getRecordsCount",
      "outputs": [
        {
          "internalType": "uint256",
          "name": "",
          "type": "uint256"
        }
      ],
      "stateMutability": "view",
      "type": "function"
    },
    {
      "inputs": [
        {
          "internalType": "uint16",
          "name": "_id",
          "type": "uint16"
        },
        {
          "internalType": "string",
          "name": "_date",
          "type": "string"
        }
      ],
      "name": "getSession",
      "outputs": [
        {
          "internalType": "uint16",
          "name": "avg",
          "type": "uint16"
        },
        {
          "internalType": "uint16",
          "name": "min",
          "type": "uint16"
        },
        {
          "internalType": "uint16",
          "name": "max",
          "type": "uint16"
        },
        {
          "internalType": "uint16",
          "name": "id",
          "type": "uint16"
        },
        {
          "internalType": "uint256",
          "name": "duration",
          "type": "uint256"
        },
        {
          "internalType": "string",
          "name": "main",
          "type": "string"
        },
        {
          "internalType": "string",
          "name": "startTime",
          "type": "string"
        },
        {
          "internalType": "string",
          "name": "endTime",
          "type": "string"
        },
        {
          "internalType": "string",
          "name": "tags",
          "type": "string"
        },
        {
          "internalType": "string",
          "name": "comment",
          "type": "string"
        }
      ],
      "stateMutability": "view",
      "type": "function"
    },
    {
      "inputs": [],
      "name": "owner",
      "outputs": [
        {
          "internalType": "address",
          "name": "",
          "type": "address"
        }
      ],
      "stateMutability": "view",
      "type": "function"
    },
    {
      "inputs": [
        {
          "internalType": "address",
          "name": "",
          "type": "address"
        }
      ],
      "name": "permitted",
      "outputs": [
        {
          "internalType": "bool",
          "name": "",
          "type": "bool"
        }
      ],
      "stateMutability": "view",
      "type": "function"
    },
    {
      "inputs": [
        {
          "internalType": "uint256",
          "name": "",
          "type": "uint256"
        }
      ],
      "name": "records",
      "outputs": [
        {
          "internalType": "address",
          "name": "writer",
          "type": "address"
        },
        {
          "internalType": "uint16",
          "name": "avg",
          "type": "uint16"
        },
        {
          "internalType": "uint16",
          "name": "min",
          "type": "uint16"
        },
        {
          "internalType": "uint16",
          "name": "max",
          "type": "uint16"
        },
        {
          "internalType": "uint16",
          "name": "sessionCount",
          "type": "uint16"
        },
        {
          "internalType": "string",
          "name": "main",
          "type": "string"
        },
        {
          "internalType": "uint256",
          "name": "totDuration",
          "type": "uint256"
        },
        {
          "internalType": "string",
          "name": "date",
          "type": "string"
        }
      ],
      "stateMutability": "view",
      "type": "function"
    },
    {
      "inputs": [],
      "name": "recordsCount",
      "outputs": [
        {
          "internalType": "uint256",
          "name": "",
          "type": "uint256"
        }
      ],
      "stateMutability": "view",
      "type": "function"
    }
  ],
  "bytecode": "0x60a060405234801561001057600080fd5b503373ffffffffffffffffffffffffffffffffffffffff1660808173ffffffffffffffffffffffffffffffffffffffff168152505060016003600060805173ffffffffffffffffffffffffffffffffffffffff1673ffffffffffffffffffffffffffffffffffffffff16815260200190815260200160002060006101000a81548160ff02191690831515021790555060805161226c6100c1600039600081816107ee01526110cf015261226c6000f3fe608060405234801561001057600080fd5b50600436106100a95760003560e01c8063505158bb11610071578063505158bb14610198578063552bc9b5146101b65780636cc301e3146101d25780638da5cb5b14610202578063eb3dbf8314610220578063ecfa82841461023e576100a9565b8063034a59bd146100ae57806303e9e609146100e75780632e751e411461011e57806332143d8a146101285780633446106714610161575b600080fd5b6100c860048036038101906100c3919061150b565b61025a565b6040516100de9a99989796959493929190611612565b60405180910390f35b61010160048036038101906100fc91906116d1565b6105c1565b60405161011598979695949392919061173f565b60405180910390f35b6101266107ec565b005b610142600480360381019061013d91906117f7565b6108d4565b6040516101589a99989796959493929190611612565b60405180910390f35b61017b600480360381019061017691906116d1565b610cd6565b60405161018f989796959493929190611853565b60405180910390f35b6101a0610e96565b6040516101ad91906118df565b60405180910390f35b6101d060048036038101906101cb91906118fa565b610ea3565b005b6101ec60048036038101906101e79190611a00565b6110ad565b6040516101f99190611a48565b60405180910390f35b61020a6110cd565b6040516102179190611a63565b60405180910390f35b6102286110f1565b60405161023591906118df565b60405180910390f35b61025860048036038101906102539190611a7e565b6110f7565b005b600282805160208101820180518482526020830160208501208183528095505050505050818154811061028c57600080fd5b9060005260206000209060070201600091509150508060000160009054906101000a900461ffff16908060000160029054906101000a900461ffff16908060000160049054906101000a900461ffff16908060000160069054906101000a900461ffff169080600101549080600201805461030690611c49565b80601f016020809104026020016040519081016040528092919081815260200182805461033290611c49565b801561037f5780601f106103545761010080835404028352916020019161037f565b820191906000526020600020905b81548152906001019060200180831161036257829003601f168201915b50505050509080600301805461039490611c49565b80601f01602080910402602001604051908101604052809291908181526020018280546103c090611c49565b801561040d5780601f106103e25761010080835404028352916020019161040d565b820191906000526020600020905b8154815290600101906020018083116103f057829003601f168201915b50505050509080600401805461042290611c49565b80601f016020809104026020016040519081016040528092919081815260200182805461044e90611c49565b801561049b5780601f106104705761010080835404028352916020019161049b565b820191906000526020600020905b81548152906001019060200180831161047e57829003601f168201915b5050505050908060050180546104b090611c49565b80601f01602080910402602001604051908101604052809291908181526020018280546104dc90611c49565b80156105295780601f106104fe57610100808354040283529160200191610529565b820191906000526020600020905b81548152906001019060200180831161050c57829003601f168201915b50505050509080600601805461053e90611c49565b80601f016020809104026020016040519081016040528092919081815260200182805461056a90611c49565b80156105b75780601f1061058c576101008083540402835291602001916105b7565b820191906000526020600020905b81548152906001019060200180831161059a57829003601f168201915b505050505090508a565b6000806000806000806060806001805490508910610614576040517f08c379a000000000000000000000000000000000000000000000000000000000815260040161060b90611cc6565b60405180910390fd5b600060018a8154811061062a57610629611ce6565b5b906000526020600020906004020190508060000160009054906101000a900473ffffffffffffffffffffffffffffffffffffffff168160000160149054906101000a900461ffff168260000160169054906101000a900461ffff168360000160189054906101000a900461ffff1684600001601a9054906101000a900461ffff16856002015486600101876003018180546106c490611c49565b80601f01602080910402602001604051908101604052809291908181526020018280546106f090611c49565b801561073d5780601f106107125761010080835404028352916020019161073d565b820191906000526020600020905b81548152906001019060200180831161072057829003601f168201915b5050505050915080805461075090611c49565b80601f016020809104026020016040519081016040528092919081815260200182805461077c90611c49565b80156107c95780601f1061079e576101008083540402835291602001916107c9565b820191906000526020600020905b8154815290600101906020018083116107ac57829003601f168201915b505050505090509850985098509850985098509850985050919395975091939597565b7f000000000000000000000000000000000000000000000000000000000000000073ffffffffffffffffffffffffffffffffffffffff163373ffffffffffffffffffffffffffffffffffffffff161461087a576040517f08c379a000000000000000000000000000000000000000000000000000000000815260040161087190611d61565b60405180910390fd5b6001600360003373ffffffffffffffffffffffffffffffffffffffff1673ffffffffffffffffffffffffffffffffffffffff16815260200190815260200160002060006101000a81548160ff021916908315150217905550565b6000806000806000606080606080606060028b6040516108f49190611dbd565b9081526020016040518091039020805490508c61ffff161061094b576040517f08c379a000000000000000000000000000000000000000000000000000000000815260040161094290611e20565b60405180910390fd5b600060028c60405161095d9190611dbd565b90815260200160405180910390208d61ffff168154811061098157610980611ce6565b5b906000526020600020906007020190508060000160009054906101000a900461ffff168160000160029054906101000a900461ffff168260000160049054906101000a900461ffff168360000160069054906101000a900461ffff1684600101548560020186600301876004018860050189600601848054610a0290611c49565b80601f0160208091040260200160405190810160405280929190818152602001828054610a2e90611c49565b8015610a7b5780601f10610a5057610100808354040283529160200191610a7b565b820191906000526020600020905b815481529060010190602001808311610a5e57829003601f168201915b50505050509450838054610a8e90611c49565b80601f0160208091040260200160405190810160405280929190818152602001828054610aba90611c49565b8015610b075780601f10610adc57610100808354040283529160200191610b07565b820191906000526020600020905b815481529060010190602001808311610aea57829003601f168201915b50505050509350828054610b1a90611c49565b80601f0160208091040260200160405190810160405280929190818152602001828054610b4690611c49565b8015610b935780601f10610b6857610100808354040283529160200191610b93565b820191906000526020600020905b815481529060010190602001808311610b7657829003601f168201915b50505050509250818054610ba690611c49565b80601f0160208091040260200160405190810160405280929190818152602001828054610bd290611c49565b8015610c1f5780601f10610bf457610100808354040283529160200191610c1f565b820191906000526020600020905b815481529060010190602001808311610c0257829003601f168201915b50505050509150808054610c3290611c49565b80601f0160208091040260200160405190810160405280929190818152602001828054610c5e90611c49565b8015610cab5780601f10610c8057610100808354040283529160200191610cab565b820191906000526020600020905b815481529060010190602001808311610c8e57829003601f168201915b505050505090509a509a509a509a509a509a509a509a509a509a50509295989b9194979a5092959850565b60018181548110610ce657600080fd5b90600052602060002090600402016000915090508060000160009054906101000a900473ffffffffffffffffffffffffffffffffffffffff16908060000160149054906101000a900461ffff16908060000160169054906101000a900461ffff16908060000160189054906101000a900461ffff169080600001601a9054906101000a900461ffff1690806001018054610d7f90611c49565b80601f0160208091040260200160405190810160405280929190818152602001828054610dab90611c49565b8015610df85780601f10610dcd57610100808354040283529160200191610df8565b820191906000526020600020905b815481529060010190602001808311610ddb57829003601f168201915b505050505090806002015490806003018054610e1390611c49565b80601f0160208091040260200160405190810160405280929190818152602001828054610e3f90611c49565b8015610e8c5780601f10610e6157610100808354040283529160200191610e8c565b820191906000526020600020905b815481529060010190602001808311610e6f57829003601f168201915b5050505050905088565b6000600180549050905090565b60011515600360003373ffffffffffffffffffffffffffffffffffffffff1673ffffffffffffffffffffffffffffffffffffffff16815260200190815260200160002060009054906101000a900460ff16151514610f36576040517f08c379a0000000000000000000000000000000000000000000000000000000008152600401610f2d90611e8c565b60405180910390fd5b6000600180816001815401808255809150500390600052602060002090600402019050338160000160006101000a81548173ffffffffffffffffffffffffffffffffffffffff021916908373ffffffffffffffffffffffffffffffffffffffff160217905550878160000160146101000a81548161ffff021916908361ffff160217905550868160000160166101000a81548161ffff021916908361ffff160217905550858160000160186101000a81548161ffff021916908361ffff1602179055508481600001601a6101000a81548161ffff021916908361ffff160217905550838160020181905550828160010190816110329190612058565b50818160030190816110449190612058565b5060008081548092919061105790612159565b91905055507fd1959b6f21a13d63764a45c846f4a58f7e55291fb17591ff1d1b3fd4c2953e456001808054905061108e91906121a1565b60405161109b91906118df565b60405180910390a15050505050505050565b60036020528060005260406000206000915054906101000a900460ff1681565b7f000000000000000000000000000000000000000000000000000000000000000081565b60005481565b60011515600360003373ffffffffffffffffffffffffffffffffffffffff1673ffffffffffffffffffffffffffffffffffffffff16815260200190815260200160002060009054906101000a900460ff1615151461118a576040517f08c379a000000000000000000000000000000000000000000000000000000000815260040161118190611e8c565b60405180910390fd5b60006040518061014001604052808d61ffff1681526020018c61ffff1681526020018b61ffff1681526020018a61ffff1681526020018981526020018881526020018681526020018581526020018481526020018381525090506002866040516111f49190611dbd565b908152602001604051809103902081908060018154018082558091505060019003906000526020600020906007020160009091909190915060008201518160000160006101000a81548161ffff021916908361ffff16021790555060208201518160000160026101000a81548161ffff021916908361ffff16021790555060408201518160000160046101000a81548161ffff021916908361ffff16021790555060608201518160000160066101000a81548161ffff021916908361ffff1602179055506080820151816001015560a08201518160020190816112d79190612058565b5060c08201518160030190816112ed9190612058565b5060e08201518160040190816113039190612058565b5061010082015181600501908161131a9190612058565b506101208201518160060190816113319190612058565b5050507f83c340f8b0e7179e29631d50bd796527c5b1084dce9f1a6b9dc4cabae635dd29868a604051611365929190612206565b60405180910390a1505050505050505050505050565b6000604051905090565b600080fd5b600080fd5b600080fd5b600080fd5b6000601f19601f8301169050919050565b7f4e487b7100000000000000000000000000000000000000000000000000000000600052604160045260246000fd5b6113e282611399565b810181811067ffffffffffffffff82111715611401576114006113aa565b5b80604052505050565b600061141461137b565b905061142082826113d9565b919050565b600067ffffffffffffffff8211156114405761143f6113aa565b5b61144982611399565b9050602081019050919050565b82818337600083830152505050565b600061147861147384611425565b61140a565b90508281526020810184848401111561149457611493611394565b5b61149f848285611456565b509392505050565b600082601f8301126114bc576114bb61138f565b5b81356114cc848260208601611465565b91505092915050565b6000819050919050565b6114e8816114d5565b81146114f357600080fd5b50565b600081359050611505816114df565b92915050565b6000806040838503121561152257611521611385565b5b600083013567ffffffffffffffff8111156115405761153f61138a565b5b61154c858286016114a7565b925050602061155d858286016114f6565b9150509250929050565b600061ffff82169050919050565b61157e81611567565b82525050565b61158d816114d5565b82525050565b600081519050919050565b600082825260208201905092915050565b60005b838110156115cd5780820151818401526020810190506115b2565b60008484015250505050565b60006115e482611593565b6115ee818561159e565b93506115fe8185602086016115af565b61160781611399565b840191505092915050565b600061014082019050611628600083018d611575565b611635602083018c611575565b611642604083018b611575565b61164f606083018a611575565b61165c6080830189611584565b81810360a083015261166e81886115d9565b905081810360c083015261168281876115d9565b905081810360e083015261169681866115d9565b90508181036101008301526116ab81856115d9565b90508181036101208301526116c081846115d9565b90509b9a5050505050505050505050565b6000602082840312156116e7576116e6611385565b5b60006116f5848285016114f6565b91505092915050565b600073ffffffffffffffffffffffffffffffffffffffff82169050919050565b6000611729826116fe565b9050919050565b6117398161171e565b82525050565b600061010082019050611755600083018b611730565b611762602083018a611575565b61176f6040830189611575565b61177c6060830188611575565b6117896080830187611575565b61179660a0830186611584565b81810360c08301526117a881856115d9565b905081810360e08301526117bc81846115d9565b90509998505050505050505050565b6117d481611567565b81146117df57600080fd5b50565b6000813590506117f1816117cb565b92915050565b6000806040838503121561180e5761180d611385565b5b600061181c858286016117e2565b925050602083013567ffffffffffffffff81111561183d5761183c61138a565b5b611849858286016114a7565b9150509250929050565b600061010082019050611869600083018b611730565b611876602083018a611575565b6118836040830189611575565b6118906060830188611575565b61189d6080830187611575565b81810360a08301526118af81866115d9565b90506118be60c0830185611584565b81810360e08301526118d081846115d9565b90509998505050505050505050565b60006020820190506118f46000830184611584565b92915050565b600080600080600080600060e0888a03121561191957611918611385565b5b60006119278a828b016117e2565b97505060206119388a828b016117e2565b96505060406119498a828b016117e2565b955050606061195a8a828b016117e2565b945050608061196b8a828b016114f6565b93505060a088013567ffffffffffffffff81111561198c5761198b61138a565b5b6119988a828b016114a7565b92505060c088013567ffffffffffffffff8111156119b9576119b861138a565b5b6119c58a828b016114a7565b91505092959891949750929550565b6119dd8161171e565b81146119e857600080fd5b50565b6000813590506119fa816119d4565b92915050565b600060208284031215611a1657611a15611385565b5b6000611a24848285016119eb565b91505092915050565b60008115159050919050565b611a4281611a2d565b82525050565b6000602082019050611a5d6000830184611a39565b92915050565b6000602082019050611a786000830184611730565b92915050565b60008060008060008060008060008060006101608c8e031215611aa457611aa3611385565b5b6000611ab28e828f016117e2565b9b50506020611ac38e828f016117e2565b9a50506040611ad48e828f016117e2565b9950506060611ae58e828f016117e2565b9850506080611af68e828f016114f6565b97505060a08c013567ffffffffffffffff811115611b1757611b1661138a565b5b611b238e828f016114a7565b96505060c08c013567ffffffffffffffff811115611b4457611b4361138a565b5b611b508e828f016114a7565b95505060e08c013567ffffffffffffffff811115611b7157611b7061138a565b5b611b7d8e828f016114a7565b9450506101008c013567ffffffffffffffff811115611b9f57611b9e61138a565b5b611bab8e828f016114a7565b9350506101208c013567ffffffffffffffff811115611bcd57611bcc61138a565b5b611bd98e828f016114a7565b9250506101408c013567ffffffffffffffff811115611bfb57611bfa61138a565b5b611c078e828f016114a7565b9150509295989b509295989b9093969950565b7f4e487b7100000000000000000000000000000000000000000000000000000000600052602260045260246000fd5b60006002820490506001821680611c6157607f821691505b602082108103611c7457611c73611c1a565b5b50919050565b7f5265636f726420646f6573206e6f742065786973742e00000000000000000000600082015250565b6000611cb060168361159e565b9150611cbb82611c7a565b602082019050919050565b60006020820190508181036000830152611cdf81611ca3565b9050919050565b7f4e487b7100000000000000000000000000000000000000000000000000000000600052603260045260246000fd5b7f4f6e6c79206f776e65722063616e20646f207468697321000000000000000000600082015250565b6000611d4b60178361159e565b9150611d5682611d15565b602082019050919050565b60006020820190508181036000830152611d7a81611d3e565b9050919050565b600081905092915050565b6000611d9782611593565b611da18185611d81565b9350611db18185602086016115af565b80840191505092915050565b6000611dc98284611d8c565b915081905092915050565b7f53657373696f6e20646f6573206e6f742065786973742e000000000000000000600082015250565b6000611e0a60178361159e565b9150611e1582611dd4565b602082019050919050565b60006020820190508181036000830152611e3981611dfd565b9050919050565b7f556e617574686f72697a65642100000000000000000000000000000000000000600082015250565b6000611e76600d8361159e565b9150611e8182611e40565b602082019050919050565b60006020820190508181036000830152611ea581611e69565b9050919050565b60008190508160005260206000209050919050565b60006020601f8301049050919050565b600082821b905092915050565b600060088302611f0e7fffffffffffffffffffffffffffffffffffffffffffffffffffffffffffffffff82611ed1565b611f188683611ed1565b95508019841693508086168417925050509392505050565b6000819050919050565b6000611f55611f50611f4b846114d5565b611f30565b6114d5565b9050919050565b6000819050919050565b611f6f83611f3a565b611f83611f7b82611f5c565b848454611ede565b825550505050565b600090565b611f98611f8b565b611fa3818484611f66565b505050565b5b81811015611fc757611fbc600082611f90565b600181019050611fa9565b5050565b601f82111561200c57611fdd81611eac565b611fe684611ec1565b81016020851015611ff5578190505b61200961200185611ec1565b830182611fa8565b50505b505050565b600082821c905092915050565b600061202f60001984600802612011565b1980831691505092915050565b6000612048838361201e565b9150826002028217905092915050565b61206182611593565b67ffffffffffffffff81111561207a576120796113aa565b5b6120848254611c49565b61208f828285611fcb565b600060209050601f8311600181146120c257600084156120b0578287015190505b6120ba858261203c565b865550612122565b601f1984166120d086611eac565b60005b828110156120f8578489015182556001820191506020850194506020810190506120d3565b868310156121155784890151612111601f89168261201e565b8355505b6001600288020188555050505b505050505050565b7f4e487b7100000000000000000000000000000000000000000000000000000000600052601160045260246000fd5b6000612164826114d5565b91507fffffffffffffffffffffffffffffffffffffffffffffffffffffffffffffffff82036121965761219561212a565b5b600182019050919050565b60006121ac826114d5565b91506121b7836114d5565b92508282039050818111156121cf576121ce61212a565b5b92915050565b60006121f06121eb6121e684611567565b611f30565b6114d5565b9050919050565b612200816121d5565b82525050565b6000604082019050818103600083015261222081856115d9565b905061222f60208301846121f7565b939250505056fea264697066735822122009f92bc0060dd2fc7081e85accba761cb95dfddc2f56e99bfbc14cfa8fa50c7b64736f6c63430008180033",
  "linkReferences": {},
  "deployedLinkReferences": {}
}