{"contracts/SmartFidget.sol":{"SmartFidget":{"abi":[{"inputs":[],"stateMutability":"nonpayable","type":"constructor"},{"anonymous":false,"inputs":[{"indexed":false,"internalType":"uint256","name":"recordId","type":"uint256"}],"name":"RecordAdded","type":"event"},{"anonymous":false,"inputs":[{"indexed":false,"internalType":"string","name":"date","type":"string"},{"indexed":false,"internalType":"uint256","name":"sessionId","type":"uint256"}],"name":"SessionAdded","type":"event"},{"inputs":[{"internalType":"uint16","name":"_avg","type":"uint16"},{"internalType":"uint16","name":"_min","type":"uint16"},{"internalType":"uint16","name":"_max","type":"uint16"},{"internalType":"uint16","name":"_sessionCount","type":"uint16"},{"internalType":"uint256","name":"_totDuration","type":"uint256"},{"internalType":"string","name":"_main","type":"string"},{"internalType":"string","name":"_date","type":"string"}],"name":"addRecord","outputs":[],"stateMutability":"nonpayable","type":"function"},{"inputs":[{"internalType":"uint16","name":"_avg","type":"uint16"},{"internalType":"uint16","name":"_min","type":"uint16"},{"internalType":"uint16","name":"_max","type":"uint16"},{"internalType":"uint16","name":"_id","type":"uint16"},{"internalType":"uint256","name":"_duration","type":"uint256"},{"internalType":"string","name":"_main","type":"string"},{"internalType":"string","name":"_date","type":"string"},{"internalType":"string","name":"_startTime","type":"string"},{"internalType":"string","name":"_endTime","type":"string"},{"internalType":"string[]","name":"_tags","type":"string[]"},{"internalType":"string","name":"_comment","type":"string"}],"name":"addSession","outputs":[],"stateMutability":"nonpayable","type":"function"},{"inputs":[{"internalType":"uint256","name":"recordId","type":"uint256"}],"name":"getRecord","outputs":[{"internalType":"address","name":"writer","type":"address"},{"internalType":"uint16","name":"avg","type":"uint16"},{"internalType":"uint16","name":"min","type":"uint16"},{"internalType":"uint16","name":"max","type":"uint16"},{"internalType":"uint16","name":"sessionCount","type":"uint16"},{"internalType":"uint256","name":"totDuration","type":"uint256"},{"internalType":"string","name":"main","type":"string"},{"internalType":"string","name":"date","type":"string"}],"stateMutability":"view","type":"function"},{"inputs":[],"name":"getRecordsCount","outputs":[{"internalType":"uint256","name":"","type":"uint256"}],"stateMutability":"view","type":"function"},{"inputs":[{"internalType":"uint16","name":"_id","type":"uint16"},{"internalType":"string","name":"_date","type":"string"}],"name":"getSession","outputs":[{"internalType":"uint16","name":"avg","type":"uint16"},{"internalType":"uint16","name":"min","type":"uint16"},{"internalType":"uint16","name":"max","type":"uint16"},{"internalType":"uint16","name":"id","type":"uint16"},{"internalType":"uint256","name":"duration","type":"uint256"},{"internalType":"string","name":"main","type":"string"},{"internalType":"string","name":"startTime","type":"string"},{"internalType":"string","name":"endTime","type":"string"},{"internalType":"string[]","name":"tags","type":"string[]"},{"internalType":"string","name":"comment","type":"string"}],"stateMutability":"view","type":"function"},{"inputs":[],"name":"owner","outputs":[{"internalType":"address","name":"","type":"address"}],"stateMutability":"view","type":"function"},{"inputs":[{"internalType":"uint256","name":"","type":"uint256"}],"name":"records","outputs":[{"internalType":"address","name":"writer","type":"address"},{"internalType":"uint16","name":"avg","type":"uint16"},{"internalType":"uint16","name":"min","type":"uint16"},{"internalType":"uint16","name":"max","type":"uint16"},{"internalType":"uint16","name":"sessionCount","type":"uint16"},{"internalType":"string","name":"main","type":"string"},{"internalType":"uint256","name":"totDuration","type":"uint256"},{"internalType":"string","name":"date","type":"string"}],"stateMutability":"view","type":"function"},{"inputs":[],"name":"recordsCount","outputs":[{"internalType":"uint256","name":"","type":"uint256"}],"stateMutability":"view","type":"function"}],"evm":{"bytecode":{"linkReferences":{},"object":"60a060405234801561001057600080fd5b503373ffffffffffffffffffffffffffffffffffffffff1660808173ffffffffffffffffffffffffffffffffffffffff1681525050608051611f2261006e60003960008181610a0901528181610c0e0152610c320152611f226000f3fe608060405234801561001057600080fd5b50600436106100885760003560e01c8063552bc9b51161005b578063552bc9b5146101525780638da5cb5b1461016e578063c36ef2d71461018c578063eb3dbf83146101a857610088565b806303e9e6091461008d57806332143d8a146100c457806334461067146100fd578063505158bb14610134575b600080fd5b6100a760048036038101906100a29190610fe0565b6101c6565b6040516100bb98979695949392919061110a565b60405180910390f35b6100de60048036038101906100d991906112f7565b6103f1565b6040516100f49a9998979695949392919061145f565b60405180910390f35b61011760048036038101906101129190610fe0565b61083a565b60405161012b98979695949392919061151e565b60405180910390f35b61013c6109fa565b60405161014991906115aa565b60405180910390f35b61016c600480360381019061016791906115c5565b610a07565b005b610176610c0c565b604051610183919061169f565b60405180910390f35b6101a660048036038101906101a191906117a0565b610c30565b005b6101b0610eb6565b6040516101bd91906115aa565b60405180910390f35b6000806000806000806060806001805490508910610219576040517f08c379a000000000000000000000000000000000000000000000000000000000815260040161021090611988565b60405180910390fd5b600060018a8154811061022f5761022e6119a8565b5b906000526020600020906004020190508060000160009054906101000a900473ffffffffffffffffffffffffffffffffffffffff168160000160149054906101000a900461ffff168260000160169054906101000a900461ffff168360000160189054906101000a900461ffff1684600001601a9054906101000a900461ffff16856002015486600101876003018180546102c990611a06565b80601f01602080910402602001604051908101604052809291908181526020018280546102f590611a06565b80156103425780601f1061031757610100808354040283529160200191610342565b820191906000526020600020905b81548152906001019060200180831161032557829003601f168201915b5050505050915080805461035590611a06565b80601f016020809104026020016040519081016040528092919081815260200182805461038190611a06565b80156103ce5780601f106103a3576101008083540402835291602001916103ce565b820191906000526020600020905b8154815290600101906020018083116103b157829003601f168201915b505050505090509850985098509850985098509850985050919395975091939597565b6000806000806000606080606080606060028b6040516104119190611a73565b9081526020016040518091039020805490508c61ffff1610610468576040517f08c379a000000000000000000000000000000000000000000000000000000000815260040161045f90611ad6565b60405180910390fd5b600060028c60405161047a9190611a73565b90815260200160405180910390208d61ffff168154811061049e5761049d6119a8565b5b906000526020600020906007020190508060000160009054906101000a900461ffff168160000160029054906101000a900461ffff168260000160049054906101000a900461ffff168360000160069054906101000a900461ffff168460010154856002018660030187600401886005018960060184805461051f90611a06565b80601f016020809104026020016040519081016040528092919081815260200182805461054b90611a06565b80156105985780601f1061056d57610100808354040283529160200191610598565b820191906000526020600020905b81548152906001019060200180831161057b57829003601f168201915b505050505094508380546105ab90611a06565b80601f01602080910402602001604051908101604052809291908181526020018280546105d790611a06565b80156106245780601f106105f957610100808354040283529160200191610624565b820191906000526020600020905b81548152906001019060200180831161060757829003601f168201915b5050505050935082805461063790611a06565b80601f016020809104026020016040519081016040528092919081815260200182805461066390611a06565b80156106b05780601f10610685576101008083540402835291602001916106b0565b820191906000526020600020905b81548152906001019060200180831161069357829003601f168201915b5050505050925081805480602002602001604051908101604052809291908181526020016000905b828210156107845783829060005260206000200180546106f790611a06565b80601f016020809104026020016040519081016040528092919081815260200182805461072390611a06565b80156107705780601f1061074557610100808354040283529160200191610770565b820191906000526020600020905b81548152906001019060200180831161075357829003601f168201915b5050505050815260200190600101906106d8565b50505050915080805461079690611a06565b80601f01602080910402602001604051908101604052809291908181526020018280546107c290611a06565b801561080f5780601f106107e45761010080835404028352916020019161080f565b820191906000526020600020905b8154815290600101906020018083116107f257829003601f168201915b505050505090509a509a509a509a509a509a509a509a509a509a50509295989b9194979a5092959850565b6001818154811061084a57600080fd5b90600052602060002090600402016000915090508060000160009054906101000a900473ffffffffffffffffffffffffffffffffffffffff16908060000160149054906101000a900461ffff16908060000160169054906101000a900461ffff16908060000160189054906101000a900461ffff169080600001601a9054906101000a900461ffff16908060010180546108e390611a06565b80601f016020809104026020016040519081016040528092919081815260200182805461090f90611a06565b801561095c5780601f106109315761010080835404028352916020019161095c565b820191906000526020600020905b81548152906001019060200180831161093f57829003601f168201915b50505050509080600201549080600301805461097790611a06565b80601f01602080910402602001604051908101604052809291908181526020018280546109a390611a06565b80156109f05780601f106109c5576101008083540402835291602001916109f0565b820191906000526020600020905b8154815290600101906020018083116109d357829003601f168201915b5050505050905088565b6000600180549050905090565b7f000000000000000000000000000000000000000000000000000000000000000073ffffffffffffffffffffffffffffffffffffffff163373ffffffffffffffffffffffffffffffffffffffff1614610a95576040517f08c379a0000000000000000000000000000000000000000000000000000000008152600401610a8c90611b42565b60405180910390fd5b6000600180816001815401808255809150500390600052602060002090600402019050338160000160006101000a81548173ffffffffffffffffffffffffffffffffffffffff021916908373ffffffffffffffffffffffffffffffffffffffff160217905550878160000160146101000a81548161ffff021916908361ffff160217905550868160000160166101000a81548161ffff021916908361ffff160217905550858160000160186101000a81548161ffff021916908361ffff1602179055508481600001601a6101000a81548161ffff021916908361ffff16021790555083816002018190555082816001019081610b919190611d0e565b5081816003019081610ba39190611d0e565b50600080815480929190610bb690611e0f565b91905055507fd1959b6f21a13d63764a45c846f4a58f7e55291fb17591ff1d1b3fd4c2953e4560018080549050610bed9190611e57565b604051610bfa91906115aa565b60405180910390a15050505050505050565b7f000000000000000000000000000000000000000000000000000000000000000081565b7f000000000000000000000000000000000000000000000000000000000000000073ffffffffffffffffffffffffffffffffffffffff163373ffffffffffffffffffffffffffffffffffffffff1614610cbe576040517f08c379a0000000000000000000000000000000000000000000000000000000008152600401610cb590611b42565b60405180910390fd5b60006040518061014001604052808d61ffff1681526020018c61ffff1681526020018b61ffff1681526020018a61ffff168152602001898152602001888152602001868152602001858152602001848152602001838152509050600286604051610d289190611a73565b908152602001604051809103902081908060018154018082558091505060019003906000526020600020906007020160009091909190915060008201518160000160006101000a81548161ffff021916908361ffff16021790555060208201518160000160026101000a81548161ffff021916908361ffff16021790555060408201518160000160046101000a81548161ffff021916908361ffff16021790555060608201518160000160066101000a81548161ffff021916908361ffff1602179055506080820151816001015560a0820151816002019081610e0b9190611d0e565b5060c0820151816003019081610e219190611d0e565b5060e0820151816004019081610e379190611d0e565b50610100820151816005019080519060200190610e55929190610ebc565b50610120820151816006019081610e6c9190611d0e565b5050507f83c340f8b0e7179e29631d50bd796527c5b1084dce9f1a6b9dc4cabae635dd29868a604051610ea0929190611ebc565b60405180910390a1505050505050505050505050565b60005481565b828054828255906000526020600020908101928215610f04579160200282015b82811115610f03578251829081610ef39190611d0e565b5091602001919060010190610edc565b5b509050610f119190610f15565b5090565b5b80821115610f355760008181610f2c9190610f39565b50600101610f16565b5090565b508054610f4590611a06565b6000825580601f10610f575750610f76565b601f016020900490600052602060002090810190610f759190610f79565b5b50565b5b80821115610f92576000816000905550600101610f7a565b5090565b6000604051905090565b600080fd5b600080fd5b6000819050919050565b610fbd81610faa565b8114610fc857600080fd5b50565b600081359050610fda81610fb4565b92915050565b600060208284031215610ff657610ff5610fa0565b5b600061100484828501610fcb565b91505092915050565b600073ffffffffffffffffffffffffffffffffffffffff82169050919050565b60006110388261100d565b9050919050565b6110488161102d565b82525050565b600061ffff82169050919050565b6110658161104e565b82525050565b61107481610faa565b82525050565b600081519050919050565b600082825260208201905092915050565b60005b838110156110b4578082015181840152602081019050611099565b60008484015250505050565b6000601f19601f8301169050919050565b60006110dc8261107a565b6110e68185611085565b93506110f6818560208601611096565b6110ff816110c0565b840191505092915050565b600061010082019050611120600083018b61103f565b61112d602083018a61105c565b61113a604083018961105c565b611147606083018861105c565b611154608083018761105c565b61116160a083018661106b565b81810360c083015261117381856110d1565b905081810360e083015261118781846110d1565b90509998505050505050505050565b61119f8161104e565b81146111aa57600080fd5b50565b6000813590506111bc81611196565b92915050565b600080fd5b600080fd5b7f4e487b7100000000000000000000000000000000000000000000000000000000600052604160045260246000fd5b611204826110c0565b810181811067ffffffffffffffff82111715611223576112226111cc565b5b80604052505050565b6000611236610f96565b905061124282826111fb565b919050565b600067ffffffffffffffff821115611262576112616111cc565b5b61126b826110c0565b9050602081019050919050565b82818337600083830152505050565b600061129a61129584611247565b61122c565b9050828152602081018484840111156112b6576112b56111c7565b5b6112c1848285611278565b509392505050565b600082601f8301126112de576112dd6111c2565b5b81356112ee848260208601611287565b91505092915050565b6000806040838503121561130e5761130d610fa0565b5b600061131c858286016111ad565b925050602083013567ffffffffffffffff81111561133d5761133c610fa5565b5b611349858286016112c9565b9150509250929050565b600081519050919050565b600082825260208201905092915050565b6000819050602082019050919050565b600082825260208201905092915050565b600061139b8261107a565b6113a5818561137f565b93506113b5818560208601611096565b6113be816110c0565b840191505092915050565b60006113d58383611390565b905092915050565b6000602082019050919050565b60006113f582611353565b6113ff818561135e565b9350836020820285016114118561136f565b8060005b8581101561144d578484038952815161142e85826113c9565b9450611439836113dd565b925060208a01995050600181019050611415565b50829750879550505050505092915050565b600061014082019050611475600083018d61105c565b611482602083018c61105c565b61148f604083018b61105c565b61149c606083018a61105c565b6114a9608083018961106b565b81810360a08301526114bb81886110d1565b905081810360c08301526114cf81876110d1565b905081810360e08301526114e381866110d1565b90508181036101008301526114f881856113ea565b905081810361012083015261150d81846110d1565b90509b9a5050505050505050505050565b600061010082019050611534600083018b61103f565b611541602083018a61105c565b61154e604083018961105c565b61155b606083018861105c565b611568608083018761105c565b81810360a083015261157a81866110d1565b905061158960c083018561106b565b81810360e083015261159b81846110d1565b90509998505050505050505050565b60006020820190506115bf600083018461106b565b92915050565b600080600080600080600060e0888a0312156115e4576115e3610fa0565b5b60006115f28a828b016111ad565b97505060206116038a828b016111ad565b96505060406116148a828b016111ad565b95505060606116258a828b016111ad565b94505060806116368a828b01610fcb565b93505060a088013567ffffffffffffffff81111561165757611656610fa5565b5b6116638a828b016112c9565b92505060c088013567ffffffffffffffff81111561168457611683610fa5565b5b6116908a828b016112c9565b91505092959891949750929550565b60006020820190506116b4600083018461103f565b92915050565b600067ffffffffffffffff8211156116d5576116d46111cc565b5b602082029050602081019050919050565b600080fd5b60006116fe6116f9846116ba565b61122c565b90508083825260208201905060208402830185811115611721576117206116e6565b5b835b8181101561176857803567ffffffffffffffff811115611746576117456111c2565b5b80860161175389826112c9565b85526020850194505050602081019050611723565b5050509392505050565b600082601f830112611787576117866111c2565b5b81356117978482602086016116eb565b91505092915050565b60008060008060008060008060008060006101608c8e0312156117c6576117c5610fa0565b5b60006117d48e828f016111ad565b9b505060206117e58e828f016111ad565b9a505060406117f68e828f016111ad565b99505060606118078e828f016111ad565b98505060806118188e828f01610fcb565b97505060a08c013567ffffffffffffffff81111561183957611838610fa5565b5b6118458e828f016112c9565b96505060c08c013567ffffffffffffffff81111561186657611865610fa5565b5b6118728e828f016112c9565b95505060e08c013567ffffffffffffffff81111561189357611892610fa5565b5b61189f8e828f016112c9565b9450506101008c013567ffffffffffffffff8111156118c1576118c0610fa5565b5b6118cd8e828f016112c9565b9350506101208c013567ffffffffffffffff8111156118ef576118ee610fa5565b5b6118fb8e828f01611772565b9250506101408c013567ffffffffffffffff81111561191d5761191c610fa5565b5b6119298e828f016112c9565b9150509295989b509295989b9093969950565b7f5265636f726420646f6573206e6f742065786973742e00000000000000000000600082015250565b6000611972601683611085565b915061197d8261193c565b602082019050919050565b600060208201905081810360008301526119a181611965565b9050919050565b7f4e487b7100000000000000000000000000000000000000000000000000000000600052603260045260246000fd5b7f4e487b7100000000000000000000000000000000000000000000000000000000600052602260045260246000fd5b60006002820490506001821680611a1e57607f821691505b602082108103611a3157611a306119d7565b5b50919050565b600081905092915050565b6000611a4d8261107a565b611a578185611a37565b9350611a67818560208601611096565b80840191505092915050565b6000611a7f8284611a42565b915081905092915050565b7f53657373696f6e20646f6573206e6f742065786973742e000000000000000000600082015250565b6000611ac0601783611085565b9150611acb82611a8a565b602082019050919050565b60006020820190508181036000830152611aef81611ab3565b9050919050565b7f556e617574686f72697a65642100000000000000000000000000000000000000600082015250565b6000611b2c600d83611085565b9150611b3782611af6565b602082019050919050565b60006020820190508181036000830152611b5b81611b1f565b9050919050565b60008190508160005260206000209050919050565b60006020601f8301049050919050565b600082821b905092915050565b600060088302611bc47fffffffffffffffffffffffffffffffffffffffffffffffffffffffffffffffff82611b87565b611bce8683611b87565b95508019841693508086168417925050509392505050565b6000819050919050565b6000611c0b611c06611c0184610faa565b611be6565b610faa565b9050919050565b6000819050919050565b611c2583611bf0565b611c39611c3182611c12565b848454611b94565b825550505050565b600090565b611c4e611c41565b611c59818484611c1c565b505050565b5b81811015611c7d57611c72600082611c46565b600181019050611c5f565b5050565b601f821115611cc257611c9381611b62565b611c9c84611b77565b81016020851015611cab578190505b611cbf611cb785611b77565b830182611c5e565b50505b505050565b600082821c905092915050565b6000611ce560001984600802611cc7565b1980831691505092915050565b6000611cfe8383611cd4565b9150826002028217905092915050565b611d178261107a565b67ffffffffffffffff811115611d3057611d2f6111cc565b5b611d3a8254611a06565b611d45828285611c81565b600060209050601f831160018114611d785760008415611d66578287015190505b611d708582611cf2565b865550611dd8565b601f198416611d8686611b62565b60005b82811015611dae57848901518255600182019150602085019450602081019050611d89565b86831015611dcb5784890151611dc7601f891682611cd4565b8355505b6001600288020188555050505b505050505050565b7f4e487b7100000000000000000000000000000000000000000000000000000000600052601160045260246000fd5b6000611e1a82610faa565b91507fffffffffffffffffffffffffffffffffffffffffffffffffffffffffffffffff8203611e4c57611e4b611de0565b5b600182019050919050565b6000611e6282610faa565b9150611e6d83610faa565b9250828203905081811115611e8557611e84611de0565b5b92915050565b6000611ea6611ea1611e9c8461104e565b611be6565b610faa565b9050919050565b611eb681611e8b565b82525050565b60006040820190508181036000830152611ed681856110d1565b9050611ee56020830184611ead565b939250505056fea26469706673582212203e08b1bbb667232dc94023f150a3539f64971cfea8d60c8779166dcf1b7d9c3564736f6c63430008180033","opcodes":"PUSH1 0xA0 PUSH1 0x40 MSTORE CALLVALUE DUP1 ISZERO PUSH2 0x10 JUMPI PUSH1 0x0 DUP1 REVERT JUMPDEST POP CALLER PUSH20 0xFFFFFFFFFFFFFFFFFFFFFFFFFFFFFFFFFFFFFFFF AND PUSH1 0x80 DUP2 PUSH20 0xFFFFFFFFFFFFFFFFFFFFFFFFFFFFFFFFFFFFFFFF AND DUP2 MSTORE POP POP PUSH1 0x80 MLOAD PUSH2 0x1F22 PUSH2 0x6E PUSH1 0x0 CODECOPY PUSH1 0x0 DUP2 DUP2 PUSH2 0xA09 ADD MSTORE DUP2 DUP2 PUSH2 0xC0E ADD MSTORE PUSH2 0xC32 ADD MSTORE PUSH2 0x1F22 PUSH1 0x0 RETURN INVALID PUSH1 0x80 PUSH1 0x40 MSTORE CALLVALUE DUP1 ISZERO PUSH2 0x10 JUMPI PUSH1 0x0 DUP1 REVERT JUMPDEST POP PUSH1 0x4 CALLDATASIZE LT PUSH2 0x88 JUMPI PUSH1 0x0 CALLDATALOAD PUSH1 0xE0 SHR DUP1 PUSH4 0x552BC9B5 GT PUSH2 0x5B JUMPI DUP1 PUSH4 0x552BC9B5 EQ PUSH2 0x152 JUMPI DUP1 PUSH4 0x8DA5CB5B EQ PUSH2 0x16E JUMPI DUP1 PUSH4 0xC36EF2D7 EQ PUSH2 0x18C JUMPI DUP1 PUSH4 0xEB3DBF83 EQ PUSH2 0x1A8 JUMPI PUSH2 0x88 JUMP JUMPDEST DUP1 PUSH4 0x3E9E609 EQ PUSH2 0x8D JUMPI DUP1 PUSH4 0x32143D8A EQ PUSH2 0xC4 JUMPI DUP1 PUSH4 0x34461067 EQ PUSH2 0xFD JUMPI DUP1 PUSH4 0x505158BB EQ PUSH2 0x134 JUMPI JUMPDEST PUSH1 0x0 DUP1 REVERT JUMPDEST PUSH2 0xA7 PUSH1 0x4 DUP1 CALLDATASIZE SUB DUP2 ADD SWAP1 PUSH2 0xA2 SWAP2 SWAP1 PUSH2 0xFE0 JUMP JUMPDEST PUSH2 0x1C6 JUMP JUMPDEST PUSH1 0x40 MLOAD PUSH2 0xBB SWAP9 SWAP8 SWAP7 SWAP6 SWAP5 SWAP4 SWAP3 SWAP2 SWAP1 PUSH2 0x110A JUMP JUMPDEST PUSH1 0x40 MLOAD DUP1 SWAP2 SUB SWAP1 RETURN JUMPDEST PUSH2 0xDE PUSH1 0x4 DUP1 CALLDATASIZE SUB DUP2 ADD SWAP1 PUSH2 0xD9 SWAP2 SWAP1 PUSH2 0x12F7 JUMP JUMPDEST PUSH2 0x3F1 JUMP JUMPDEST PUSH1 0x40 MLOAD PUSH2 0xF4 SWAP11 SWAP10 SWAP9 SWAP8 SWAP7 SWAP6 SWAP5 SWAP4 SWAP3 SWAP2 SWAP1 PUSH2 0x145F JUMP JUMPDEST PUSH1 0x40 MLOAD DUP1 SWAP2 SUB SWAP1 RETURN JUMPDEST PUSH2 0x117 PUSH1 0x4 DUP1 CALLDATASIZE SUB DUP2 ADD SWAP1 PUSH2 0x112 SWAP2 SWAP1 PUSH2 0xFE0 JUMP JUMPDEST PUSH2 0x83A JUMP JUMPDEST PUSH1 0x40 MLOAD PUSH2 0x12B SWAP9 SWAP8 SWAP7 SWAP6 SWAP5 SWAP4 SWAP3 SWAP2 SWAP1 PUSH2 0x151E JUMP JUMPDEST PUSH1 0x40 MLOAD DUP1 SWAP2 SUB SWAP1 RETURN JUMPDEST PUSH2 0x13C PUSH2 0x9FA JUMP JUMPDEST PUSH1 0x40 MLOAD PUSH2 0x149 SWAP2 SWAP1 PUSH2 0x15AA JUMP JUMPDEST PUSH1 0x40 MLOAD DUP1 SWAP2 SUB SWAP1 RETURN JUMPDEST PUSH2 0x16C PUSH1 0x4 DUP1 CALLDATASIZE SUB DUP2 ADD SWAP1 PUSH2 0x167 SWAP2 SWAP1 PUSH2 0x15C5 JUMP JUMPDEST PUSH2 0xA07 JUMP JUMPDEST STOP JUMPDEST PUSH2 0x176 PUSH2 0xC0C JUMP JUMPDEST PUSH1 0x40 MLOAD PUSH2 0x183 SWAP2 SWAP1 PUSH2 0x169F JUMP JUMPDEST PUSH1 0x40 MLOAD DUP1 SWAP2 SUB SWAP1 RETURN JUMPDEST PUSH2 0x1A6 PUSH1 0x4 DUP1 CALLDATASIZE SUB DUP2 ADD SWAP1 PUSH2 0x1A1 SWAP2 SWAP1 PUSH2 0x17A0 JUMP JUMPDEST PUSH2 0xC30 JUMP JUMPDEST STOP JUMPDEST PUSH2 0x1B0 PUSH2 0xEB6 JUMP JUMPDEST PUSH1 0x40 MLOAD PUSH2 0x1BD SWAP2 SWAP1 PUSH2 0x15AA JUMP JUMPDEST PUSH1 0x40 MLOAD DUP1 SWAP2 SUB SWAP1 RETURN JUMPDEST PUSH1 0x0 DUP1 PUSH1 0x0 DUP1 PUSH1 0x0 DUP1 PUSH1 0x60 DUP1 PUSH1 0x1 DUP1 SLOAD SWAP1 POP DUP10 LT PUSH2 0x219 JUMPI PUSH1 0x40 MLOAD PUSH32 0x8C379A000000000000000000000000000000000000000000000000000000000 DUP2 MSTORE PUSH1 0x4 ADD PUSH2 0x210 SWAP1 PUSH2 0x1988 JUMP JUMPDEST PUSH1 0x40 MLOAD DUP1 SWAP2 SUB SWAP1 REVERT JUMPDEST PUSH1 0x0 PUSH1 0x1 DUP11 DUP2 SLOAD DUP2 LT PUSH2 0x22F JUMPI PUSH2 0x22E PUSH2 0x19A8 JUMP JUMPDEST JUMPDEST SWAP1 PUSH1 0x0 MSTORE PUSH1 0x20 PUSH1 0x0 KECCAK256 SWAP1 PUSH1 0x4 MUL ADD SWAP1 POP DUP1 PUSH1 0x0 ADD PUSH1 0x0 SWAP1 SLOAD SWAP1 PUSH2 0x100 EXP SWAP1 DIV PUSH20 0xFFFFFFFFFFFFFFFFFFFFFFFFFFFFFFFFFFFFFFFF AND DUP2 PUSH1 0x0 ADD PUSH1 0x14 SWAP1 SLOAD SWAP1 PUSH2 0x100 EXP SWAP1 DIV PUSH2 0xFFFF AND DUP3 PUSH1 0x0 ADD PUSH1 0x16 SWAP1 SLOAD SWAP1 PUSH2 0x100 EXP SWAP1 DIV PUSH2 0xFFFF AND DUP4 PUSH1 0x0 ADD PUSH1 0x18 SWAP1 SLOAD SWAP1 PUSH2 0x100 EXP SWAP1 DIV PUSH2 0xFFFF AND DUP5 PUSH1 0x0 ADD PUSH1 0x1A SWAP1 SLOAD SWAP1 PUSH2 0x100 EXP SWAP1 DIV PUSH2 0xFFFF AND DUP6 PUSH1 0x2 ADD SLOAD DUP7 PUSH1 0x1 ADD DUP8 PUSH1 0x3 ADD DUP2 DUP1 SLOAD PUSH2 0x2C9 SWAP1 PUSH2 0x1A06 JUMP JUMPDEST DUP1 PUSH1 0x1F ADD PUSH1 0x20 DUP1 SWAP2 DIV MUL PUSH1 0x20 ADD PUSH1 0x40 MLOAD SWAP1 DUP2 ADD PUSH1 0x40 MSTORE DUP1 SWAP3 SWAP2 SWAP1 DUP2 DUP2 MSTORE PUSH1 0x20 ADD DUP3 DUP1 SLOAD PUSH2 0x2F5 SWAP1 PUSH2 0x1A06 JUMP JUMPDEST DUP1 ISZERO PUSH2 0x342 JUMPI DUP1 PUSH1 0x1F LT PUSH2 0x317 JUMPI PUSH2 0x100 DUP1 DUP4 SLOAD DIV MUL DUP4 MSTORE SWAP2 PUSH1 0x20 ADD SWAP2 PUSH2 0x342 JUMP JUMPDEST DUP3 ADD SWAP2 SWAP1 PUSH1 0x0 MSTORE PUSH1 0x20 PUSH1 0x0 KECCAK256 SWAP1 JUMPDEST DUP2 SLOAD DUP2 MSTORE SWAP1 PUSH1 0x1 ADD SWAP1 PUSH1 0x20 ADD DUP1 DUP4 GT PUSH2 0x325 JUMPI DUP3 SWAP1 SUB PUSH1 0x1F AND DUP3 ADD SWAP2 JUMPDEST POP POP POP POP POP SWAP2 POP DUP1 DUP1 SLOAD PUSH2 0x355 SWAP1 PUSH2 0x1A06 JUMP JUMPDEST DUP1 PUSH1 0x1F ADD PUSH1 0x20 DUP1 SWAP2 DIV MUL PUSH1 0x20 ADD PUSH1 0x40 MLOAD SWAP1 DUP2 ADD PUSH1 0x40 MSTORE DUP1 SWAP3 SWAP2 SWAP1 DUP2 DUP2 MSTORE PUSH1 0x20 ADD DUP3 DUP1 SLOAD PUSH2 0x381 SWAP1 PUSH2 0x1A06 JUMP JUMPDEST DUP1 ISZERO PUSH2 0x3CE JUMPI DUP1 PUSH1 0x1F LT PUSH2 0x3A3 JUMPI PUSH2 0x100 DUP1 DUP4 SLOAD DIV MUL DUP4 MSTORE SWAP2 PUSH1 0x20 ADD SWAP2 PUSH2 0x3CE JUMP JUMPDEST DUP3 ADD SWAP2 SWAP1 PUSH1 0x0 MSTORE PUSH1 0x20 PUSH1 0x0 KECCAK256 SWAP1 JUMPDEST DUP2 SLOAD DUP2 MSTORE SWAP1 PUSH1 0x1 ADD SWAP1 PUSH1 0x20 ADD DUP1 DUP4 GT PUSH2 0x3B1 JUMPI DUP3 SWAP1 SUB PUSH1 0x1F AND DUP3 ADD SWAP2 JUMPDEST POP POP POP POP POP SWAP1 POP SWAP9 POP SWAP9 POP SWAP9 POP SWAP9 POP SWAP9 POP SWAP9 POP SWAP9 POP SWAP9 POP POP SWAP2 SWAP4 SWAP6 SWAP8 POP SWAP2 SWAP4 SWAP6 SWAP8 JUMP JUMPDEST PUSH1 0x0 DUP1 PUSH1 0x0 DUP1 PUSH1 0x0 PUSH1 0x60 DUP1 PUSH1 0x60 DUP1 PUSH1 0x60 PUSH1 0x2 DUP12 PUSH1 0x40 MLOAD PUSH2 0x411 SWAP2 SWAP1 PUSH2 0x1A73 JUMP JUMPDEST SWAP1 DUP2 MSTORE PUSH1 0x20 ADD PUSH1 0x40 MLOAD DUP1 SWAP2 SUB SWAP1 KECCAK256 DUP1 SLOAD SWAP1 POP DUP13 PUSH2 0xFFFF AND LT PUSH2 0x468 JUMPI PUSH1 0x40 MLOAD PUSH32 0x8C379A000000000000000000000000000000000000000000000000000000000 DUP2 MSTORE PUSH1 0x4 ADD PUSH2 0x45F SWAP1 PUSH2 0x1AD6 JUMP JUMPDEST PUSH1 0x40 MLOAD DUP1 SWAP2 SUB SWAP1 REVERT JUMPDEST PUSH1 0x0 PUSH1 0x2 DUP13 PUSH1 0x40 MLOAD PUSH2 0x47A SWAP2 SWAP1 PUSH2 0x1A73 JUMP JUMPDEST SWAP1 DUP2 MSTORE PUSH1 0x20 ADD PUSH1 0x40 MLOAD DUP1 SWAP2 SUB SWAP1 KECCAK256 DUP14 PUSH2 0xFFFF AND DUP2 SLOAD DUP2 LT PUSH2 0x49E JUMPI PUSH2 0x49D PUSH2 0x19A8 JUMP JUMPDEST JUMPDEST SWAP1 PUSH1 0x0 MSTORE PUSH1 0x20 PUSH1 0x0 KECCAK256 SWAP1 PUSH1 0x7 MUL ADD SWAP1 POP DUP1 PUSH1 0x0 ADD PUSH1 0x0 SWAP1 SLOAD SWAP1 PUSH2 0x100 EXP SWAP1 DIV PUSH2 0xFFFF AND DUP2 PUSH1 0x0 ADD PUSH1 0x2 SWAP1 SLOAD SWAP1 PUSH2 0x100 EXP SWAP1 DIV PUSH2 0xFFFF AND DUP3 PUSH1 0x0 ADD PUSH1 0x4 SWAP1 SLOAD SWAP1 PUSH2 0x100 EXP SWAP1 DIV PUSH2 0xFFFF AND DUP4 PUSH1 0x0 ADD PUSH1 0x6 SWAP1 SLOAD SWAP1 PUSH2 0x100 EXP SWAP1 DIV PUSH2 0xFFFF AND DUP5 PUSH1 0x1 ADD SLOAD DUP6 PUSH1 0x2 ADD DUP7 PUSH1 0x3 ADD DUP8 PUSH1 0x4 ADD DUP9 PUSH1 0x5 ADD DUP10 PUSH1 0x6 ADD DUP5 DUP1 SLOAD PUSH2 0x51F SWAP1 PUSH2 0x1A06 JUMP JUMPDEST DUP1 PUSH1 0x1F ADD PUSH1 0x20 DUP1 SWAP2 DIV MUL PUSH1 0x20 ADD PUSH1 0x40 MLOAD SWAP1 DUP2 ADD PUSH1 0x40 MSTORE DUP1 SWAP3 SWAP2 SWAP1 DUP2 DUP2 MSTORE PUSH1 0x20 ADD DUP3 DUP1 SLOAD PUSH2 0x54B SWAP1 PUSH2 0x1A06 JUMP JUMPDEST DUP1 ISZERO PUSH2 0x598 JUMPI DUP1 PUSH1 0x1F LT PUSH2 0x56D JUMPI PUSH2 0x100 DUP1 DUP4 SLOAD DIV MUL DUP4 MSTORE SWAP2 PUSH1 0x20 ADD SWAP2 PUSH2 0x598 JUMP JUMPDEST DUP3 ADD SWAP2 SWAP1 PUSH1 0x0 MSTORE PUSH1 0x20 PUSH1 0x0 KECCAK256 SWAP1 JUMPDEST DUP2 SLOAD DUP2 MSTORE SWAP1 PUSH1 0x1 ADD SWAP1 PUSH1 0x20 ADD DUP1 DUP4 GT PUSH2 0x57B JUMPI DUP3 SWAP1 SUB PUSH1 0x1F AND DUP3 ADD SWAP2 JUMPDEST POP POP POP POP POP SWAP5 POP DUP4 DUP1 SLOAD PUSH2 0x5AB SWAP1 PUSH2 0x1A06 JUMP JUMPDEST DUP1 PUSH1 0x1F ADD PUSH1 0x20 DUP1 SWAP2 DIV MUL PUSH1 0x20 ADD PUSH1 0x40 MLOAD SWAP1 DUP2 ADD PUSH1 0x40 MSTORE DUP1 SWAP3 SWAP2 SWAP1 DUP2 DUP2 MSTORE PUSH1 0x20 ADD DUP3 DUP1 SLOAD PUSH2 0x5D7 SWAP1 PUSH2 0x1A06 JUMP JUMPDEST DUP1 ISZERO PUSH2 0x624 JUMPI DUP1 PUSH1 0x1F LT PUSH2 0x5F9 JUMPI PUSH2 0x100 DUP1 DUP4 SLOAD DIV MUL DUP4 MSTORE SWAP2 PUSH1 0x20 ADD SWAP2 PUSH2 0x624 JUMP JUMPDEST DUP3 ADD SWAP2 SWAP1 PUSH1 0x0 MSTORE PUSH1 0x20 PUSH1 0x0 KECCAK256 SWAP1 JUMPDEST DUP2 SLOAD DUP2 MSTORE SWAP1 PUSH1 0x1 ADD SWAP1 PUSH1 0x20 ADD DUP1 DUP4 GT PUSH2 0x607 JUMPI DUP3 SWAP1 SUB PUSH1 0x1F AND DUP3 ADD SWAP2 JUMPDEST POP POP POP POP POP SWAP4 POP DUP3 DUP1 SLOAD PUSH2 0x637 SWAP1 PUSH2 0x1A06 JUMP JUMPDEST DUP1 PUSH1 0x1F ADD PUSH1 0x20 DUP1 SWAP2 DIV MUL PUSH1 0x20 ADD PUSH1 0x40 MLOAD SWAP1 DUP2 ADD PUSH1 0x40 MSTORE DUP1 SWAP3 SWAP2 SWAP1 DUP2 DUP2 MSTORE PUSH1 0x20 ADD DUP3 DUP1 SLOAD PUSH2 0x663 SWAP1 PUSH2 0x1A06 JUMP JUMPDEST DUP1 ISZERO PUSH2 0x6B0 JUMPI DUP1 PUSH1 0x1F LT PUSH2 0x685 JUMPI PUSH2 0x100 DUP1 DUP4 SLOAD DIV MUL DUP4 MSTORE SWAP2 PUSH1 0x20 ADD SWAP2 PUSH2 0x6B0 JUMP JUMPDEST DUP3 ADD SWAP2 SWAP1 PUSH1 0x0 MSTORE PUSH1 0x20 PUSH1 0x0 KECCAK256 SWAP1 JUMPDEST DUP2 SLOAD DUP2 MSTORE SWAP1 PUSH1 0x1 ADD SWAP1 PUSH1 0x20 ADD DUP1 DUP4 GT PUSH2 0x693 JUMPI DUP3 SWAP1 SUB PUSH1 0x1F AND DUP3 ADD SWAP2 JUMPDEST POP POP POP POP POP SWAP3 POP DUP2 DUP1 SLOAD DUP1 PUSH1 0x20 MUL PUSH1 0x20 ADD PUSH1 0x40 MLOAD SWAP1 DUP2 ADD PUSH1 0x40 MSTORE DUP1 SWAP3 SWAP2 SWAP1 DUP2 DUP2 MSTORE PUSH1 0x20 ADD PUSH1 0x0 SWAP1 JUMPDEST DUP3 DUP3 LT ISZERO PUSH2 0x784 JUMPI DUP4 DUP3 SWAP1 PUSH1 0x0 MSTORE PUSH1 0x20 PUSH1 0x0 KECCAK256 ADD DUP1 SLOAD PUSH2 0x6F7 SWAP1 PUSH2 0x1A06 JUMP JUMPDEST DUP1 PUSH1 0x1F ADD PUSH1 0x20 DUP1 SWAP2 DIV MUL PUSH1 0x20 ADD PUSH1 0x40 MLOAD SWAP1 DUP2 ADD PUSH1 0x40 MSTORE DUP1 SWAP3 SWAP2 SWAP1 DUP2 DUP2 MSTORE PUSH1 0x20 ADD DUP3 DUP1 SLOAD PUSH2 0x723 SWAP1 PUSH2 0x1A06 JUMP JUMPDEST DUP1 ISZERO PUSH2 0x770 JUMPI DUP1 PUSH1 0x1F LT PUSH2 0x745 JUMPI PUSH2 0x100 DUP1 DUP4 SLOAD DIV MUL DUP4 MSTORE SWAP2 PUSH1 0x20 ADD SWAP2 PUSH2 0x770 JUMP JUMPDEST DUP3 ADD SWAP2 SWAP1 PUSH1 0x0 MSTORE PUSH1 0x20 PUSH1 0x0 KECCAK256 SWAP1 JUMPDEST DUP2 SLOAD DUP2 MSTORE SWAP1 PUSH1 0x1 ADD SWAP1 PUSH1 0x20 ADD DUP1 DUP4 GT PUSH2 0x753 JUMPI DUP3 SWAP1 SUB PUSH1 0x1F AND DUP3 ADD SWAP2 JUMPDEST POP POP POP POP POP DUP2 MSTORE PUSH1 0x20 ADD SWAP1 PUSH1 0x1 ADD SWAP1 PUSH2 0x6D8 JUMP JUMPDEST POP POP POP POP SWAP2 POP DUP1 DUP1 SLOAD PUSH2 0x796 SWAP1 PUSH2 0x1A06 JUMP JUMPDEST DUP1 PUSH1 0x1F ADD PUSH1 0x20 DUP1 SWAP2 DIV MUL PUSH1 0x20 ADD PUSH1 0x40 MLOAD SWAP1 DUP2 ADD PUSH1 0x40 MSTORE DUP1 SWAP3 SWAP2 SWAP1 DUP2 DUP2 MSTORE PUSH1 0x20 ADD DUP3 DUP1 SLOAD PUSH2 0x7C2 SWAP1 PUSH2 0x1A06 JUMP JUMPDEST DUP1 ISZERO PUSH2 0x80F JUMPI DUP1 PUSH1 0x1F LT PUSH2 0x7E4 JUMPI PUSH2 0x100 DUP1 DUP4 SLOAD DIV MUL DUP4 MSTORE SWAP2 PUSH1 0x20 ADD SWAP2 PUSH2 0x80F JUMP JUMPDEST DUP3 ADD SWAP2 SWAP1 PUSH1 0x0 MSTORE PUSH1 0x20 PUSH1 0x0 KECCAK256 SWAP1 JUMPDEST DUP2 SLOAD DUP2 MSTORE SWAP1 PUSH1 0x1 ADD SWAP1 PUSH1 0x20 ADD DUP1 DUP4 GT PUSH2 0x7F2 JUMPI DUP3 SWAP1 SUB PUSH1 0x1F AND DUP3 ADD SWAP2 JUMPDEST POP POP POP POP POP SWAP1 POP SWAP11 POP SWAP11 POP SWAP11 POP SWAP11 POP SWAP11 POP SWAP11 POP SWAP11 POP SWAP11 POP SWAP11 POP SWAP11 POP POP SWAP3 SWAP6 SWAP9 SWAP12 SWAP2 SWAP5 SWAP8 SWAP11 POP SWAP3 SWAP6 SWAP9 POP JUMP JUMPDEST PUSH1 0x1 DUP2 DUP2 SLOAD DUP2 LT PUSH2 0x84A JUMPI PUSH1 0x0 DUP1 REVERT JUMPDEST SWAP1 PUSH1 0x0 MSTORE PUSH1 0x20 PUSH1 0x0 KECCAK256 SWAP1 PUSH1 0x4 MUL ADD PUSH1 0x0 SWAP2 POP SWAP1 POP DUP1 PUSH1 0x0 ADD PUSH1 0x0 SWAP1 SLOAD SWAP1 PUSH2 0x100 EXP SWAP1 DIV PUSH20 0xFFFFFFFFFFFFFFFFFFFFFFFFFFFFFFFFFFFFFFFF AND SWAP1 DUP1 PUSH1 0x0 ADD PUSH1 0x14 SWAP1 SLOAD SWAP1 PUSH2 0x100 EXP SWAP1 DIV PUSH2 0xFFFF AND SWAP1 DUP1 PUSH1 0x0 ADD PUSH1 0x16 SWAP1 SLOAD SWAP1 PUSH2 0x100 EXP SWAP1 DIV PUSH2 0xFFFF AND SWAP1 DUP1 PUSH1 0x0 ADD PUSH1 0x18 SWAP1 SLOAD SWAP1 PUSH2 0x100 EXP SWAP1 DIV PUSH2 0xFFFF AND SWAP1 DUP1 PUSH1 0x0 ADD PUSH1 0x1A SWAP1 SLOAD SWAP1 PUSH2 0x100 EXP SWAP1 DIV PUSH2 0xFFFF AND SWAP1 DUP1 PUSH1 0x1 ADD DUP1 SLOAD PUSH2 0x8E3 SWAP1 PUSH2 0x1A06 JUMP JUMPDEST DUP1 PUSH1 0x1F ADD PUSH1 0x20 DUP1 SWAP2 DIV MUL PUSH1 0x20 ADD PUSH1 0x40 MLOAD SWAP1 DUP2 ADD PUSH1 0x40 MSTORE DUP1 SWAP3 SWAP2 SWAP1 DUP2 DUP2 MSTORE PUSH1 0x20 ADD DUP3 DUP1 SLOAD PUSH2 0x90F SWAP1 PUSH2 0x1A06 JUMP JUMPDEST DUP1 ISZERO PUSH2 0x95C JUMPI DUP1 PUSH1 0x1F LT PUSH2 0x931 JUMPI PUSH2 0x100 DUP1 DUP4 SLOAD DIV MUL DUP4 MSTORE SWAP2 PUSH1 0x20 ADD SWAP2 PUSH2 0x95C JUMP JUMPDEST DUP3 ADD SWAP2 SWAP1 PUSH1 0x0 MSTORE PUSH1 0x20 PUSH1 0x0 KECCAK256 SWAP1 JUMPDEST DUP2 SLOAD DUP2 MSTORE SWAP1 PUSH1 0x1 ADD SWAP1 PUSH1 0x20 ADD DUP1 DUP4 GT PUSH2 0x93F JUMPI DUP3 SWAP1 SUB PUSH1 0x1F AND DUP3 ADD SWAP2 JUMPDEST POP POP POP POP POP SWAP1 DUP1 PUSH1 0x2 ADD SLOAD SWAP1 DUP1 PUSH1 0x3 ADD DUP1 SLOAD PUSH2 0x977 SWAP1 PUSH2 0x1A06 JUMP JUMPDEST DUP1 PUSH1 0x1F ADD PUSH1 0x20 DUP1 SWAP2 DIV MUL PUSH1 0x20 ADD PUSH1 0x40 MLOAD SWAP1 DUP2 ADD PUSH1 0x40 MSTORE DUP1 SWAP3 SWAP2 SWAP1 DUP2 DUP2 MSTORE PUSH1 0x20 ADD DUP3 DUP1 SLOAD PUSH2 0x9A3 SWAP1 PUSH2 0x1A06 JUMP JUMPDEST DUP1 ISZERO PUSH2 0x9F0 JUMPI DUP1 PUSH1 0x1F LT PUSH2 0x9C5 JUMPI PUSH2 0x100 DUP1 DUP4 SLOAD DIV MUL DUP4 MSTORE SWAP2 PUSH1 0x20 ADD SWAP2 PUSH2 0x9F0 JUMP JUMPDEST DUP3 ADD SWAP2 SWAP1 PUSH1 0x0 MSTORE PUSH1 0x20 PUSH1 0x0 KECCAK256 SWAP1 JUMPDEST DUP2 SLOAD DUP2 MSTORE SWAP1 PUSH1 0x1 ADD SWAP1 PUSH1 0x20 ADD DUP1 DUP4 GT PUSH2 0x9D3 JUMPI DUP3 SWAP1 SUB PUSH1 0x1F AND DUP3 ADD SWAP2 JUMPDEST POP POP POP POP POP SWAP1 POP DUP9 JUMP JUMPDEST PUSH1 0x0 PUSH1 0x1 DUP1 SLOAD SWAP1 POP SWAP1 POP SWAP1 JUMP JUMPDEST PUSH32 0x0 PUSH20 0xFFFFFFFFFFFFFFFFFFFFFFFFFFFFFFFFFFFFFFFF AND CALLER PUSH20 0xFFFFFFFFFFFFFFFFFFFFFFFFFFFFFFFFFFFFFFFF AND EQ PUSH2 0xA95 JUMPI PUSH1 0x40 MLOAD PUSH32 0x8C379A000000000000000000000000000000000000000000000000000000000 DUP2 MSTORE PUSH1 0x4 ADD PUSH2 0xA8C SWAP1 PUSH2 0x1B42 JUMP JUMPDEST PUSH1 0x40 MLOAD DUP1 SWAP2 SUB SWAP1 REVERT JUMPDEST PUSH1 0x0 PUSH1 0x1 DUP1 DUP2 PUSH1 0x1 DUP2 SLOAD ADD DUP1 DUP3 SSTORE DUP1 SWAP2 POP POP SUB SWAP1 PUSH1 0x0 MSTORE PUSH1 0x20 PUSH1 0x0 KECCAK256 SWAP1 PUSH1 0x4 MUL ADD SWAP1 POP CALLER DUP2 PUSH1 0x0 ADD PUSH1 0x0 PUSH2 0x100 EXP DUP2 SLOAD DUP2 PUSH20 0xFFFFFFFFFFFFFFFFFFFFFFFFFFFFFFFFFFFFFFFF MUL NOT AND SWAP1 DUP4 PUSH20 0xFFFFFFFFFFFFFFFFFFFFFFFFFFFFFFFFFFFFFFFF AND MUL OR SWAP1 SSTORE POP DUP8 DUP2 PUSH1 0x0 ADD PUSH1 0x14 PUSH2 0x100 EXP DUP2 SLOAD DUP2 PUSH2 0xFFFF MUL NOT AND SWAP1 DUP4 PUSH2 0xFFFF AND MUL OR SWAP1 SSTORE POP DUP7 DUP2 PUSH1 0x0 ADD PUSH1 0x16 PUSH2 0x100 EXP DUP2 SLOAD DUP2 PUSH2 0xFFFF MUL NOT AND SWAP1 DUP4 PUSH2 0xFFFF AND MUL OR SWAP1 SSTORE POP DUP6 DUP2 PUSH1 0x0 ADD PUSH1 0x18 PUSH2 0x100 EXP DUP2 SLOAD DUP2 PUSH2 0xFFFF MUL NOT AND SWAP1 DUP4 PUSH2 0xFFFF AND MUL OR SWAP1 SSTORE POP DUP5 DUP2 PUSH1 0x0 ADD PUSH1 0x1A PUSH2 0x100 EXP DUP2 SLOAD DUP2 PUSH2 0xFFFF MUL NOT AND SWAP1 DUP4 PUSH2 0xFFFF AND MUL OR SWAP1 SSTORE POP DUP4 DUP2 PUSH1 0x2 ADD DUP2 SWAP1 SSTORE POP DUP3 DUP2 PUSH1 0x1 ADD SWAP1 DUP2 PUSH2 0xB91 SWAP2 SWAP1 PUSH2 0x1D0E JUMP JUMPDEST POP DUP2 DUP2 PUSH1 0x3 ADD SWAP1 DUP2 PUSH2 0xBA3 SWAP2 SWAP1 PUSH2 0x1D0E JUMP JUMPDEST POP PUSH1 0x0 DUP1 DUP2 SLOAD DUP1 SWAP3 SWAP2 SWAP1 PUSH2 0xBB6 SWAP1 PUSH2 0x1E0F JUMP JUMPDEST SWAP2 SWAP1 POP SSTORE POP PUSH32 0xD1959B6F21A13D63764A45C846F4A58F7E55291FB17591FF1D1B3FD4C2953E45 PUSH1 0x1 DUP1 DUP1 SLOAD SWAP1 POP PUSH2 0xBED SWAP2 SWAP1 PUSH2 0x1E57 JUMP JUMPDEST PUSH1 0x40 MLOAD PUSH2 0xBFA SWAP2 SWAP1 PUSH2 0x15AA JUMP JUMPDEST PUSH1 0x40 MLOAD DUP1 SWAP2 SUB SWAP1 LOG1 POP POP POP POP POP POP POP POP JUMP JUMPDEST PUSH32 0x0 DUP2 JUMP JUMPDEST PUSH32 0x0 PUSH20 0xFFFFFFFFFFFFFFFFFFFFFFFFFFFFFFFFFFFFFFFF AND CALLER PUSH20 0xFFFFFFFFFFFFFFFFFFFFFFFFFFFFFFFFFFFFFFFF AND EQ PUSH2 0xCBE JUMPI PUSH1 0x40 MLOAD PUSH32 0x8C379A000000000000000000000000000000000000000000000000000000000 DUP2 MSTORE PUSH1 0x4 ADD PUSH2 0xCB5 SWAP1 PUSH2 0x1B42 JUMP JUMPDEST PUSH1 0x40 MLOAD DUP1 SWAP2 SUB SWAP1 REVERT JUMPDEST PUSH1 0x0 PUSH1 0x40 MLOAD DUP1 PUSH2 0x140 ADD PUSH1 0x40 MSTORE DUP1 DUP14 PUSH2 0xFFFF AND DUP2 MSTORE PUSH1 0x20 ADD DUP13 PUSH2 0xFFFF AND DUP2 MSTORE PUSH1 0x20 ADD DUP12 PUSH2 0xFFFF AND DUP2 MSTORE PUSH1 0x20 ADD DUP11 PUSH2 0xFFFF AND DUP2 MSTORE PUSH1 0x20 ADD DUP10 DUP2 MSTORE PUSH1 0x20 ADD DUP9 DUP2 MSTORE PUSH1 0x20 ADD DUP7 DUP2 MSTORE PUSH1 0x20 ADD DUP6 DUP2 MSTORE PUSH1 0x20 ADD DUP5 DUP2 MSTORE PUSH1 0x20 ADD DUP4 DUP2 MSTORE POP SWAP1 POP PUSH1 0x2 DUP7 PUSH1 0x40 MLOAD PUSH2 0xD28 SWAP2 SWAP1 PUSH2 0x1A73 JUMP JUMPDEST SWAP1 DUP2 MSTORE PUSH1 0x20 ADD PUSH1 0x40 MLOAD DUP1 SWAP2 SUB SWAP1 KECCAK256 DUP2 SWAP1 DUP1 PUSH1 0x1 DUP2 SLOAD ADD DUP1 DUP3 SSTORE DUP1 SWAP2 POP POP PUSH1 0x1 SWAP1 SUB SWAP1 PUSH1 0x0 MSTORE PUSH1 0x20 PUSH1 0x0 KECCAK256 SWAP1 PUSH1 0x7 MUL ADD PUSH1 0x0 SWAP1 SWAP2 SWAP1 SWAP2 SWAP1 SWAP2 POP PUSH1 0x0 DUP3 ADD MLOAD DUP2 PUSH1 0x0 ADD PUSH1 0x0 PUSH2 0x100 EXP DUP2 SLOAD DUP2 PUSH2 0xFFFF MUL NOT AND SWAP1 DUP4 PUSH2 0xFFFF AND MUL OR SWAP1 SSTORE POP PUSH1 0x20 DUP3 ADD MLOAD DUP2 PUSH1 0x0 ADD PUSH1 0x2 PUSH2 0x100 EXP DUP2 SLOAD DUP2 PUSH2 0xFFFF MUL NOT AND SWAP1 DUP4 PUSH2 0xFFFF AND MUL OR SWAP1 SSTORE POP PUSH1 0x40 DUP3 ADD MLOAD DUP2 PUSH1 0x0 ADD PUSH1 0x4 PUSH2 0x100 EXP DUP2 SLOAD DUP2 PUSH2 0xFFFF MUL NOT AND SWAP1 DUP4 PUSH2 0xFFFF AND MUL OR SWAP1 SSTORE POP PUSH1 0x60 DUP3 ADD MLOAD DUP2 PUSH1 0x0 ADD PUSH1 0x6 PUSH2 0x100 EXP DUP2 SLOAD DUP2 PUSH2 0xFFFF MUL NOT AND SWAP1 DUP4 PUSH2 0xFFFF AND MUL OR SWAP1 SSTORE POP PUSH1 0x80 DUP3 ADD MLOAD DUP2 PUSH1 0x1 ADD SSTORE PUSH1 0xA0 DUP3 ADD MLOAD DUP2 PUSH1 0x2 ADD SWAP1 DUP2 PUSH2 0xE0B SWAP2 SWAP1 PUSH2 0x1D0E JUMP JUMPDEST POP PUSH1 0xC0 DUP3 ADD MLOAD DUP2 PUSH1 0x3 ADD SWAP1 DUP2 PUSH2 0xE21 SWAP2 SWAP1 PUSH2 0x1D0E JUMP JUMPDEST POP PUSH1 0xE0 DUP3 ADD MLOAD DUP2 PUSH1 0x4 ADD SWAP1 DUP2 PUSH2 0xE37 SWAP2 SWAP1 PUSH2 0x1D0E JUMP JUMPDEST POP PUSH2 0x100 DUP3 ADD MLOAD DUP2 PUSH1 0x5 ADD SWAP1 DUP1 MLOAD SWAP1 PUSH1 0x20 ADD SWAP1 PUSH2 0xE55 SWAP3 SWAP2 SWAP1 PUSH2 0xEBC JUMP JUMPDEST POP PUSH2 0x120 DUP3 ADD MLOAD DUP2 PUSH1 0x6 ADD SWAP1 DUP2 PUSH2 0xE6C SWAP2 SWAP1 PUSH2 0x1D0E JUMP JUMPDEST POP POP POP PUSH32 0x83C340F8B0E7179E29631D50BD796527C5B1084DCE9F1A6B9DC4CABAE635DD29 DUP7 DUP11 PUSH1 0x40 MLOAD PUSH2 0xEA0 SWAP3 SWAP2 SWAP1 PUSH2 0x1EBC JUMP JUMPDEST PUSH1 0x40 MLOAD DUP1 SWAP2 SUB SWAP1 LOG1 POP POP POP POP POP POP POP POP POP POP POP POP JUMP JUMPDEST PUSH1 0x0 SLOAD DUP2 JUMP JUMPDEST DUP3 DUP1 SLOAD DUP3 DUP3 SSTORE SWAP1 PUSH1 0x0 MSTORE PUSH1 0x20 PUSH1 0x0 KECCAK256 SWAP1 DUP2 ADD SWAP3 DUP3 ISZERO PUSH2 0xF04 JUMPI SWAP2 PUSH1 0x20 MUL DUP3 ADD JUMPDEST DUP3 DUP2 GT ISZERO PUSH2 0xF03 JUMPI DUP3 MLOAD DUP3 SWAP1 DUP2 PUSH2 0xEF3 SWAP2 SWAP1 PUSH2 0x1D0E JUMP JUMPDEST POP SWAP2 PUSH1 0x20 ADD SWAP2 SWAP1 PUSH1 0x1 ADD SWAP1 PUSH2 0xEDC JUMP JUMPDEST JUMPDEST POP SWAP1 POP PUSH2 0xF11 SWAP2 SWAP1 PUSH2 0xF15 JUMP JUMPDEST POP SWAP1 JUMP JUMPDEST JUMPDEST DUP1 DUP3 GT ISZERO PUSH2 0xF35 JUMPI PUSH1 0x0 DUP2 DUP2 PUSH2 0xF2C SWAP2 SWAP1 PUSH2 0xF39 JUMP JUMPDEST POP PUSH1 0x1 ADD PUSH2 0xF16 JUMP JUMPDEST POP SWAP1 JUMP JUMPDEST POP DUP1 SLOAD PUSH2 0xF45 SWAP1 PUSH2 0x1A06 JUMP JUMPDEST PUSH1 0x0 DUP3 SSTORE DUP1 PUSH1 0x1F LT PUSH2 0xF57 JUMPI POP PUSH2 0xF76 JUMP JUMPDEST PUSH1 0x1F ADD PUSH1 0x20 SWAP1 DIV SWAP1 PUSH1 0x0 MSTORE PUSH1 0x20 PUSH1 0x0 KECCAK256 SWAP1 DUP2 ADD SWAP1 PUSH2 0xF75 SWAP2 SWAP1 PUSH2 0xF79 JUMP JUMPDEST JUMPDEST POP JUMP JUMPDEST JUMPDEST DUP1 DUP3 GT ISZERO PUSH2 0xF92 JUMPI PUSH1 0x0 DUP2 PUSH1 0x0 SWAP1 SSTORE POP PUSH1 0x1 ADD PUSH2 0xF7A JUMP JUMPDEST POP SWAP1 JUMP JUMPDEST PUSH1 0x0 PUSH1 0x40 MLOAD SWAP1 POP SWAP1 JUMP JUMPDEST PUSH1 0x0 DUP1 REVERT JUMPDEST PUSH1 0x0 DUP1 REVERT JUMPDEST PUSH1 0x0 DUP2 SWAP1 POP SWAP2 SWAP1 POP JUMP JUMPDEST PUSH2 0xFBD DUP2 PUSH2 0xFAA JUMP JUMPDEST DUP2 EQ PUSH2 0xFC8 JUMPI PUSH1 0x0 DUP1 REVERT JUMPDEST POP JUMP JUMPDEST PUSH1 0x0 DUP2 CALLDATALOAD SWAP1 POP PUSH2 0xFDA DUP2 PUSH2 0xFB4 JUMP JUMPDEST SWAP3 SWAP2 POP POP JUMP JUMPDEST PUSH1 0x0 PUSH1 0x20 DUP3 DUP5 SUB SLT ISZERO PUSH2 0xFF6 JUMPI PUSH2 0xFF5 PUSH2 0xFA0 JUMP JUMPDEST JUMPDEST PUSH1 0x0 PUSH2 0x1004 DUP5 DUP3 DUP6 ADD PUSH2 0xFCB JUMP JUMPDEST SWAP2 POP POP SWAP3 SWAP2 POP POP JUMP JUMPDEST PUSH1 0x0 PUSH20 0xFFFFFFFFFFFFFFFFFFFFFFFFFFFFFFFFFFFFFFFF DUP3 AND SWAP1 POP SWAP2 SWAP1 POP JUMP JUMPDEST PUSH1 0x0 PUSH2 0x1038 DUP3 PUSH2 0x100D JUMP JUMPDEST SWAP1 POP SWAP2 SWAP1 POP JUMP JUMPDEST PUSH2 0x1048 DUP2 PUSH2 0x102D JUMP JUMPDEST DUP3 MSTORE POP POP JUMP JUMPDEST PUSH1 0x0 PUSH2 0xFFFF DUP3 AND SWAP1 POP SWAP2 SWAP1 POP JUMP JUMPDEST PUSH2 0x1065 DUP2 PUSH2 0x104E JUMP JUMPDEST DUP3 MSTORE POP POP JUMP JUMPDEST PUSH2 0x1074 DUP2 PUSH2 0xFAA JUMP JUMPDEST DUP3 MSTORE POP POP JUMP JUMPDEST PUSH1 0x0 DUP2 MLOAD SWAP1 POP SWAP2 SWAP1 POP JUMP JUMPDEST PUSH1 0x0 DUP3 DUP3 MSTORE PUSH1 0x20 DUP3 ADD SWAP1 POP SWAP3 SWAP2 POP POP JUMP JUMPDEST PUSH1 0x0 JUMPDEST DUP4 DUP2 LT ISZERO PUSH2 0x10B4 JUMPI DUP1 DUP3 ADD MLOAD DUP2 DUP5 ADD MSTORE PUSH1 0x20 DUP2 ADD SWAP1 POP PUSH2 0x1099 JUMP JUMPDEST PUSH1 0x0 DUP5 DUP5 ADD MSTORE POP POP POP POP JUMP JUMPDEST PUSH1 0x0 PUSH1 0x1F NOT PUSH1 0x1F DUP4 ADD AND SWAP1 POP SWAP2 SWAP1 POP JUMP JUMPDEST PUSH1 0x0 PUSH2 0x10DC DUP3 PUSH2 0x107A JUMP JUMPDEST PUSH2 0x10E6 DUP2 DUP6 PUSH2 0x1085 JUMP JUMPDEST SWAP4 POP PUSH2 0x10F6 DUP2 DUP6 PUSH1 0x20 DUP7 ADD PUSH2 0x1096 JUMP JUMPDEST PUSH2 0x10FF DUP2 PUSH2 0x10C0 JUMP JUMPDEST DUP5 ADD SWAP2 POP POP SWAP3 SWAP2 POP POP JUMP JUMPDEST PUSH1 0x0 PUSH2 0x100 DUP3 ADD SWAP1 POP PUSH2 0x1120 PUSH1 0x0 DUP4 ADD DUP12 PUSH2 0x103F JUMP JUMPDEST PUSH2 0x112D PUSH1 0x20 DUP4 ADD DUP11 PUSH2 0x105C JUMP JUMPDEST PUSH2 0x113A PUSH1 0x40 DUP4 ADD DUP10 PUSH2 0x105C JUMP JUMPDEST PUSH2 0x1147 PUSH1 0x60 DUP4 ADD DUP9 PUSH2 0x105C JUMP JUMPDEST PUSH2 0x1154 PUSH1 0x80 DUP4 ADD DUP8 PUSH2 0x105C JUMP JUMPDEST PUSH2 0x1161 PUSH1 0xA0 DUP4 ADD DUP7 PUSH2 0x106B JUMP JUMPDEST DUP2 DUP2 SUB PUSH1 0xC0 DUP4 ADD MSTORE PUSH2 0x1173 DUP2 DUP6 PUSH2 0x10D1 JUMP JUMPDEST SWAP1 POP DUP2 DUP2 SUB PUSH1 0xE0 DUP4 ADD MSTORE PUSH2 0x1187 DUP2 DUP5 PUSH2 0x10D1 JUMP JUMPDEST SWAP1 POP SWAP10 SWAP9 POP POP POP POP POP POP POP POP POP JUMP JUMPDEST PUSH2 0x119F DUP2 PUSH2 0x104E JUMP JUMPDEST DUP2 EQ PUSH2 0x11AA JUMPI PUSH1 0x0 DUP1 REVERT JUMPDEST POP JUMP JUMPDEST PUSH1 0x0 DUP2 CALLDATALOAD SWAP1 POP PUSH2 0x11BC DUP2 PUSH2 0x1196 JUMP JUMPDEST SWAP3 SWAP2 POP POP JUMP JUMPDEST PUSH1 0x0 DUP1 REVERT JUMPDEST PUSH1 0x0 DUP1 REVERT JUMPDEST PUSH32 0x4E487B7100000000000000000000000000000000000000000000000000000000 PUSH1 0x0 MSTORE PUSH1 0x41 PUSH1 0x4 MSTORE PUSH1 0x24 PUSH1 0x0 REVERT JUMPDEST PUSH2 0x1204 DUP3 PUSH2 0x10C0 JUMP JUMPDEST DUP2 ADD DUP2 DUP2 LT PUSH8 0xFFFFFFFFFFFFFFFF DUP3 GT OR ISZERO PUSH2 0x1223 JUMPI PUSH2 0x1222 PUSH2 0x11CC JUMP JUMPDEST JUMPDEST DUP1 PUSH1 0x40 MSTORE POP POP POP JUMP JUMPDEST PUSH1 0x0 PUSH2 0x1236 PUSH2 0xF96 JUMP JUMPDEST SWAP1 POP PUSH2 0x1242 DUP3 DUP3 PUSH2 0x11FB JUMP JUMPDEST SWAP2 SWAP1 POP JUMP JUMPDEST PUSH1 0x0 PUSH8 0xFFFFFFFFFFFFFFFF DUP3 GT ISZERO PUSH2 0x1262 JUMPI PUSH2 0x1261 PUSH2 0x11CC JUMP JUMPDEST JUMPDEST PUSH2 0x126B DUP3 PUSH2 0x10C0 JUMP JUMPDEST SWAP1 POP PUSH1 0x20 DUP2 ADD SWAP1 POP SWAP2 SWAP1 POP JUMP JUMPDEST DUP3 DUP2 DUP4 CALLDATACOPY PUSH1 0x0 DUP4 DUP4 ADD MSTORE POP POP POP JUMP JUMPDEST PUSH1 0x0 PUSH2 0x129A PUSH2 0x1295 DUP5 PUSH2 0x1247 JUMP JUMPDEST PUSH2 0x122C JUMP JUMPDEST SWAP1 POP DUP3 DUP2 MSTORE PUSH1 0x20 DUP2 ADD DUP5 DUP5 DUP5 ADD GT ISZERO PUSH2 0x12B6 JUMPI PUSH2 0x12B5 PUSH2 0x11C7 JUMP JUMPDEST JUMPDEST PUSH2 0x12C1 DUP5 DUP3 DUP6 PUSH2 0x1278 JUMP JUMPDEST POP SWAP4 SWAP3 POP POP POP JUMP JUMPDEST PUSH1 0x0 DUP3 PUSH1 0x1F DUP4 ADD SLT PUSH2 0x12DE JUMPI PUSH2 0x12DD PUSH2 0x11C2 JUMP JUMPDEST JUMPDEST DUP2 CALLDATALOAD PUSH2 0x12EE DUP5 DUP3 PUSH1 0x20 DUP7 ADD PUSH2 0x1287 JUMP JUMPDEST SWAP2 POP POP SWAP3 SWAP2 POP POP JUMP JUMPDEST PUSH1 0x0 DUP1 PUSH1 0x40 DUP4 DUP6 SUB SLT ISZERO PUSH2 0x130E JUMPI PUSH2 0x130D PUSH2 0xFA0 JUMP JUMPDEST JUMPDEST PUSH1 0x0 PUSH2 0x131C DUP6 DUP3 DUP7 ADD PUSH2 0x11AD JUMP JUMPDEST SWAP3 POP POP PUSH1 0x20 DUP4 ADD CALLDATALOAD PUSH8 0xFFFFFFFFFFFFFFFF DUP2 GT ISZERO PUSH2 0x133D JUMPI PUSH2 0x133C PUSH2 0xFA5 JUMP JUMPDEST JUMPDEST PUSH2 0x1349 DUP6 DUP3 DUP7 ADD PUSH2 0x12C9 JUMP JUMPDEST SWAP2 POP POP SWAP3 POP SWAP3 SWAP1 POP JUMP JUMPDEST PUSH1 0x0 DUP2 MLOAD SWAP1 POP SWAP2 SWAP1 POP JUMP JUMPDEST PUSH1 0x0 DUP3 DUP3 MSTORE PUSH1 0x20 DUP3 ADD SWAP1 POP SWAP3 SWAP2 POP POP JUMP JUMPDEST PUSH1 0x0 DUP2 SWAP1 POP PUSH1 0x20 DUP3 ADD SWAP1 POP SWAP2 SWAP1 POP JUMP JUMPDEST PUSH1 0x0 DUP3 DUP3 MSTORE PUSH1 0x20 DUP3 ADD SWAP1 POP SWAP3 SWAP2 POP POP JUMP JUMPDEST PUSH1 0x0 PUSH2 0x139B DUP3 PUSH2 0x107A JUMP JUMPDEST PUSH2 0x13A5 DUP2 DUP6 PUSH2 0x137F JUMP JUMPDEST SWAP4 POP PUSH2 0x13B5 DUP2 DUP6 PUSH1 0x20 DUP7 ADD PUSH2 0x1096 JUMP JUMPDEST PUSH2 0x13BE DUP2 PUSH2 0x10C0 JUMP JUMPDEST DUP5 ADD SWAP2 POP POP SWAP3 SWAP2 POP POP JUMP JUMPDEST PUSH1 0x0 PUSH2 0x13D5 DUP4 DUP4 PUSH2 0x1390 JUMP JUMPDEST SWAP1 POP SWAP3 SWAP2 POP POP JUMP JUMPDEST PUSH1 0x0 PUSH1 0x20 DUP3 ADD SWAP1 POP SWAP2 SWAP1 POP JUMP JUMPDEST PUSH1 0x0 PUSH2 0x13F5 DUP3 PUSH2 0x1353 JUMP JUMPDEST PUSH2 0x13FF DUP2 DUP6 PUSH2 0x135E JUMP JUMPDEST SWAP4 POP DUP4 PUSH1 0x20 DUP3 MUL DUP6 ADD PUSH2 0x1411 DUP6 PUSH2 0x136F JUMP JUMPDEST DUP1 PUSH1 0x0 JUMPDEST DUP6 DUP2 LT ISZERO PUSH2 0x144D JUMPI DUP5 DUP5 SUB DUP10 MSTORE DUP2 MLOAD PUSH2 0x142E DUP6 DUP3 PUSH2 0x13C9 JUMP JUMPDEST SWAP5 POP PUSH2 0x1439 DUP4 PUSH2 0x13DD JUMP JUMPDEST SWAP3 POP PUSH1 0x20 DUP11 ADD SWAP10 POP POP PUSH1 0x1 DUP2 ADD SWAP1 POP PUSH2 0x1415 JUMP JUMPDEST POP DUP3 SWAP8 POP DUP8 SWAP6 POP POP POP POP POP POP SWAP3 SWAP2 POP POP JUMP JUMPDEST PUSH1 0x0 PUSH2 0x140 DUP3 ADD SWAP1 POP PUSH2 0x1475 PUSH1 0x0 DUP4 ADD DUP14 PUSH2 0x105C JUMP JUMPDEST PUSH2 0x1482 PUSH1 0x20 DUP4 ADD DUP13 PUSH2 0x105C JUMP JUMPDEST PUSH2 0x148F PUSH1 0x40 DUP4 ADD DUP12 PUSH2 0x105C JUMP JUMPDEST PUSH2 0x149C PUSH1 0x60 DUP4 ADD DUP11 PUSH2 0x105C JUMP JUMPDEST PUSH2 0x14A9 PUSH1 0x80 DUP4 ADD DUP10 PUSH2 0x106B JUMP JUMPDEST DUP2 DUP2 SUB PUSH1 0xA0 DUP4 ADD MSTORE PUSH2 0x14BB DUP2 DUP9 PUSH2 0x10D1 JUMP JUMPDEST SWAP1 POP DUP2 DUP2 SUB PUSH1 0xC0 DUP4 ADD MSTORE PUSH2 0x14CF DUP2 DUP8 PUSH2 0x10D1 JUMP JUMPDEST SWAP1 POP DUP2 DUP2 SUB PUSH1 0xE0 DUP4 ADD MSTORE PUSH2 0x14E3 DUP2 DUP7 PUSH2 0x10D1 JUMP JUMPDEST SWAP1 POP DUP2 DUP2 SUB PUSH2 0x100 DUP4 ADD MSTORE PUSH2 0x14F8 DUP2 DUP6 PUSH2 0x13EA JUMP JUMPDEST SWAP1 POP DUP2 DUP2 SUB PUSH2 0x120 DUP4 ADD MSTORE PUSH2 0x150D DUP2 DUP5 PUSH2 0x10D1 JUMP JUMPDEST SWAP1 POP SWAP12 SWAP11 POP POP POP POP POP POP POP POP POP POP POP JUMP JUMPDEST PUSH1 0x0 PUSH2 0x100 DUP3 ADD SWAP1 POP PUSH2 0x1534 PUSH1 0x0 DUP4 ADD DUP12 PUSH2 0x103F JUMP JUMPDEST PUSH2 0x1541 PUSH1 0x20 DUP4 ADD DUP11 PUSH2 0x105C JUMP JUMPDEST PUSH2 0x154E PUSH1 0x40 DUP4 ADD DUP10 PUSH2 0x105C JUMP JUMPDEST PUSH2 0x155B PUSH1 0x60 DUP4 ADD DUP9 PUSH2 0x105C JUMP JUMPDEST PUSH2 0x1568 PUSH1 0x80 DUP4 ADD DUP8 PUSH2 0x105C JUMP JUMPDEST DUP2 DUP2 SUB PUSH1 0xA0 DUP4 ADD MSTORE PUSH2 0x157A DUP2 DUP7 PUSH2 0x10D1 JUMP JUMPDEST SWAP1 POP PUSH2 0x1589 PUSH1 0xC0 DUP4 ADD DUP6 PUSH2 0x106B JUMP JUMPDEST DUP2 DUP2 SUB PUSH1 0xE0 DUP4 ADD MSTORE PUSH2 0x159B DUP2 DUP5 PUSH2 0x10D1 JUMP JUMPDEST SWAP1 POP SWAP10 SWAP9 POP POP POP POP POP POP POP POP POP JUMP JUMPDEST PUSH1 0x0 PUSH1 0x20 DUP3 ADD SWAP1 POP PUSH2 0x15BF PUSH1 0x0 DUP4 ADD DUP5 PUSH2 0x106B JUMP JUMPDEST SWAP3 SWAP2 POP POP JUMP JUMPDEST PUSH1 0x0 DUP1 PUSH1 0x0 DUP1 PUSH1 0x0 DUP1 PUSH1 0x0 PUSH1 0xE0 DUP9 DUP11 SUB SLT ISZERO PUSH2 0x15E4 JUMPI PUSH2 0x15E3 PUSH2 0xFA0 JUMP JUMPDEST JUMPDEST PUSH1 0x0 PUSH2 0x15F2 DUP11 DUP3 DUP12 ADD PUSH2 0x11AD JUMP JUMPDEST SWAP8 POP POP PUSH1 0x20 PUSH2 0x1603 DUP11 DUP3 DUP12 ADD PUSH2 0x11AD JUMP JUMPDEST SWAP7 POP POP PUSH1 0x40 PUSH2 0x1614 DUP11 DUP3 DUP12 ADD PUSH2 0x11AD JUMP JUMPDEST SWAP6 POP POP PUSH1 0x60 PUSH2 0x1625 DUP11 DUP3 DUP12 ADD PUSH2 0x11AD JUMP JUMPDEST SWAP5 POP POP PUSH1 0x80 PUSH2 0x1636 DUP11 DUP3 DUP12 ADD PUSH2 0xFCB JUMP JUMPDEST SWAP4 POP POP PUSH1 0xA0 DUP9 ADD CALLDATALOAD PUSH8 0xFFFFFFFFFFFFFFFF DUP2 GT ISZERO PUSH2 0x1657 JUMPI PUSH2 0x1656 PUSH2 0xFA5 JUMP JUMPDEST JUMPDEST PUSH2 0x1663 DUP11 DUP3 DUP12 ADD PUSH2 0x12C9 JUMP JUMPDEST SWAP3 POP POP PUSH1 0xC0 DUP9 ADD CALLDATALOAD PUSH8 0xFFFFFFFFFFFFFFFF DUP2 GT ISZERO PUSH2 0x1684 JUMPI PUSH2 0x1683 PUSH2 0xFA5 JUMP JUMPDEST JUMPDEST PUSH2 0x1690 DUP11 DUP3 DUP12 ADD PUSH2 0x12C9 JUMP JUMPDEST SWAP2 POP POP SWAP3 SWAP6 SWAP9 SWAP2 SWAP5 SWAP8 POP SWAP3 SWAP6 POP JUMP JUMPDEST PUSH1 0x0 PUSH1 0x20 DUP3 ADD SWAP1 POP PUSH2 0x16B4 PUSH1 0x0 DUP4 ADD DUP5 PUSH2 0x103F JUMP JUMPDEST SWAP3 SWAP2 POP POP JUMP JUMPDEST PUSH1 0x0 PUSH8 0xFFFFFFFFFFFFFFFF DUP3 GT ISZERO PUSH2 0x16D5 JUMPI PUSH2 0x16D4 PUSH2 0x11CC JUMP JUMPDEST JUMPDEST PUSH1 0x20 DUP3 MUL SWAP1 POP PUSH1 0x20 DUP2 ADD SWAP1 POP SWAP2 SWAP1 POP JUMP JUMPDEST PUSH1 0x0 DUP1 REVERT JUMPDEST PUSH1 0x0 PUSH2 0x16FE PUSH2 0x16F9 DUP5 PUSH2 0x16BA JUMP JUMPDEST PUSH2 0x122C JUMP JUMPDEST SWAP1 POP DUP1 DUP4 DUP3 MSTORE PUSH1 0x20 DUP3 ADD SWAP1 POP PUSH1 0x20 DUP5 MUL DUP4 ADD DUP6 DUP2 GT ISZERO PUSH2 0x1721 JUMPI PUSH2 0x1720 PUSH2 0x16E6 JUMP JUMPDEST JUMPDEST DUP4 JUMPDEST DUP2 DUP2 LT ISZERO PUSH2 0x1768 JUMPI DUP1 CALLDATALOAD PUSH8 0xFFFFFFFFFFFFFFFF DUP2 GT ISZERO PUSH2 0x1746 JUMPI PUSH2 0x1745 PUSH2 0x11C2 JUMP JUMPDEST JUMPDEST DUP1 DUP7 ADD PUSH2 0x1753 DUP10 DUP3 PUSH2 0x12C9 JUMP JUMPDEST DUP6 MSTORE PUSH1 0x20 DUP6 ADD SWAP5 POP POP POP PUSH1 0x20 DUP2 ADD SWAP1 POP PUSH2 0x1723 JUMP JUMPDEST POP POP POP SWAP4 SWAP3 POP POP POP JUMP JUMPDEST PUSH1 0x0 DUP3 PUSH1 0x1F DUP4 ADD SLT PUSH2 0x1787 JUMPI PUSH2 0x1786 PUSH2 0x11C2 JUMP JUMPDEST JUMPDEST DUP2 CALLDATALOAD PUSH2 0x1797 DUP5 DUP3 PUSH1 0x20 DUP7 ADD PUSH2 0x16EB JUMP JUMPDEST SWAP2 POP POP SWAP3 SWAP2 POP POP JUMP JUMPDEST PUSH1 0x0 DUP1 PUSH1 0x0 DUP1 PUSH1 0x0 DUP1 PUSH1 0x0 DUP1 PUSH1 0x0 DUP1 PUSH1 0x0 PUSH2 0x160 DUP13 DUP15 SUB SLT ISZERO PUSH2 0x17C6 JUMPI PUSH2 0x17C5 PUSH2 0xFA0 JUMP JUMPDEST JUMPDEST PUSH1 0x0 PUSH2 0x17D4 DUP15 DUP3 DUP16 ADD PUSH2 0x11AD JUMP JUMPDEST SWAP12 POP POP PUSH1 0x20 PUSH2 0x17E5 DUP15 DUP3 DUP16 ADD PUSH2 0x11AD JUMP JUMPDEST SWAP11 POP POP PUSH1 0x40 PUSH2 0x17F6 DUP15 DUP3 DUP16 ADD PUSH2 0x11AD JUMP JUMPDEST SWAP10 POP POP PUSH1 0x60 PUSH2 0x1807 DUP15 DUP3 DUP16 ADD PUSH2 0x11AD JUMP JUMPDEST SWAP9 POP POP PUSH1 0x80 PUSH2 0x1818 DUP15 DUP3 DUP16 ADD PUSH2 0xFCB JUMP JUMPDEST SWAP8 POP POP PUSH1 0xA0 DUP13 ADD CALLDATALOAD PUSH8 0xFFFFFFFFFFFFFFFF DUP2 GT ISZERO PUSH2 0x1839 JUMPI PUSH2 0x1838 PUSH2 0xFA5 JUMP JUMPDEST JUMPDEST PUSH2 0x1845 DUP15 DUP3 DUP16 ADD PUSH2 0x12C9 JUMP JUMPDEST SWAP7 POP POP PUSH1 0xC0 DUP13 ADD CALLDATALOAD PUSH8 0xFFFFFFFFFFFFFFFF DUP2 GT ISZERO PUSH2 0x1866 JUMPI PUSH2 0x1865 PUSH2 0xFA5 JUMP JUMPDEST JUMPDEST PUSH2 0x1872 DUP15 DUP3 DUP16 ADD PUSH2 0x12C9 JUMP JUMPDEST SWAP6 POP POP PUSH1 0xE0 DUP13 ADD CALLDATALOAD PUSH8 0xFFFFFFFFFFFFFFFF DUP2 GT ISZERO PUSH2 0x1893 JUMPI PUSH2 0x1892 PUSH2 0xFA5 JUMP JUMPDEST JUMPDEST PUSH2 0x189F DUP15 DUP3 DUP16 ADD PUSH2 0x12C9 JUMP JUMPDEST SWAP5 POP POP PUSH2 0x100 DUP13 ADD CALLDATALOAD PUSH8 0xFFFFFFFFFFFFFFFF DUP2 GT ISZERO PUSH2 0x18C1 JUMPI PUSH2 0x18C0 PUSH2 0xFA5 JUMP JUMPDEST JUMPDEST PUSH2 0x18CD DUP15 DUP3 DUP16 ADD PUSH2 0x12C9 JUMP JUMPDEST SWAP4 POP POP PUSH2 0x120 DUP13 ADD CALLDATALOAD PUSH8 0xFFFFFFFFFFFFFFFF DUP2 GT ISZERO PUSH2 0x18EF JUMPI PUSH2 0x18EE PUSH2 0xFA5 JUMP JUMPDEST JUMPDEST PUSH2 0x18FB DUP15 DUP3 DUP16 ADD PUSH2 0x1772 JUMP JUMPDEST SWAP3 POP POP PUSH2 0x140 DUP13 ADD CALLDATALOAD PUSH8 0xFFFFFFFFFFFFFFFF DUP2 GT ISZERO PUSH2 0x191D JUMPI PUSH2 0x191C PUSH2 0xFA5 JUMP JUMPDEST JUMPDEST PUSH2 0x1929 DUP15 DUP3 DUP16 ADD PUSH2 0x12C9 JUMP JUMPDEST SWAP2 POP POP SWAP3 SWAP6 SWAP9 SWAP12 POP SWAP3 SWAP6 SWAP9 SWAP12 SWAP1 SWAP4 SWAP7 SWAP10 POP JUMP JUMPDEST PUSH32 0x5265636F726420646F6573206E6F742065786973742E00000000000000000000 PUSH1 0x0 DUP3 ADD MSTORE POP JUMP JUMPDEST PUSH1 0x0 PUSH2 0x1972 PUSH1 0x16 DUP4 PUSH2 0x1085 JUMP JUMPDEST SWAP2 POP PUSH2 0x197D DUP3 PUSH2 0x193C JUMP JUMPDEST PUSH1 0x20 DUP3 ADD SWAP1 POP SWAP2 SWAP1 POP JUMP JUMPDEST PUSH1 0x0 PUSH1 0x20 DUP3 ADD SWAP1 POP DUP2 DUP2 SUB PUSH1 0x0 DUP4 ADD MSTORE PUSH2 0x19A1 DUP2 PUSH2 0x1965 JUMP JUMPDEST SWAP1 POP SWAP2 SWAP1 POP JUMP JUMPDEST PUSH32 0x4E487B7100000000000000000000000000000000000000000000000000000000 PUSH1 0x0 MSTORE PUSH1 0x32 PUSH1 0x4 MSTORE PUSH1 0x24 PUSH1 0x0 REVERT JUMPDEST PUSH32 0x4E487B7100000000000000000000000000000000000000000000000000000000 PUSH1 0x0 MSTORE PUSH1 0x22 PUSH1 0x4 MSTORE PUSH1 0x24 PUSH1 0x0 REVERT JUMPDEST PUSH1 0x0 PUSH1 0x2 DUP3 DIV SWAP1 POP PUSH1 0x1 DUP3 AND DUP1 PUSH2 0x1A1E JUMPI PUSH1 0x7F DUP3 AND SWAP2 POP JUMPDEST PUSH1 0x20 DUP3 LT DUP2 SUB PUSH2 0x1A31 JUMPI PUSH2 0x1A30 PUSH2 0x19D7 JUMP JUMPDEST JUMPDEST POP SWAP2 SWAP1 POP JUMP JUMPDEST PUSH1 0x0 DUP2 SWAP1 POP SWAP3 SWAP2 POP POP JUMP JUMPDEST PUSH1 0x0 PUSH2 0x1A4D DUP3 PUSH2 0x107A JUMP JUMPDEST PUSH2 0x1A57 DUP2 DUP6 PUSH2 0x1A37 JUMP JUMPDEST SWAP4 POP PUSH2 0x1A67 DUP2 DUP6 PUSH1 0x20 DUP7 ADD PUSH2 0x1096 JUMP JUMPDEST DUP1 DUP5 ADD SWAP2 POP POP SWAP3 SWAP2 POP POP JUMP JUMPDEST PUSH1 0x0 PUSH2 0x1A7F DUP3 DUP5 PUSH2 0x1A42 JUMP JUMPDEST SWAP2 POP DUP2 SWAP1 POP SWAP3 SWAP2 POP POP JUMP JUMPDEST PUSH32 0x53657373696F6E20646F6573206E6F742065786973742E000000000000000000 PUSH1 0x0 DUP3 ADD MSTORE POP JUMP JUMPDEST PUSH1 0x0 PUSH2 0x1AC0 PUSH1 0x17 DUP4 PUSH2 0x1085 JUMP JUMPDEST SWAP2 POP PUSH2 0x1ACB DUP3 PUSH2 0x1A8A JUMP JUMPDEST PUSH1 0x20 DUP3 ADD SWAP1 POP SWAP2 SWAP1 POP JUMP JUMPDEST PUSH1 0x0 PUSH1 0x20 DUP3 ADD SWAP1 POP DUP2 DUP2 SUB PUSH1 0x0 DUP4 ADD MSTORE PUSH2 0x1AEF DUP2 PUSH2 0x1AB3 JUMP JUMPDEST SWAP1 POP SWAP2 SWAP1 POP JUMP JUMPDEST PUSH32 0x556E617574686F72697A65642100000000000000000000000000000000000000 PUSH1 0x0 DUP3 ADD MSTORE POP JUMP JUMPDEST PUSH1 0x0 PUSH2 0x1B2C PUSH1 0xD DUP4 PUSH2 0x1085 JUMP JUMPDEST SWAP2 POP PUSH2 0x1B37 DUP3 PUSH2 0x1AF6 JUMP JUMPDEST PUSH1 0x20 DUP3 ADD SWAP1 POP SWAP2 SWAP1 POP JUMP JUMPDEST PUSH1 0x0 PUSH1 0x20 DUP3 ADD SWAP1 POP DUP2 DUP2 SUB PUSH1 0x0 DUP4 ADD MSTORE PUSH2 0x1B5B DUP2 PUSH2 0x1B1F JUMP JUMPDEST SWAP1 POP SWAP2 SWAP1 POP JUMP JUMPDEST PUSH1 0x0 DUP2 SWAP1 POP DUP2 PUSH1 0x0 MSTORE PUSH1 0x20 PUSH1 0x0 KECCAK256 SWAP1 POP SWAP2 SWAP1 POP JUMP JUMPDEST PUSH1 0x0 PUSH1 0x20 PUSH1 0x1F DUP4 ADD DIV SWAP1 POP SWAP2 SWAP1 POP JUMP JUMPDEST PUSH1 0x0 DUP3 DUP3 SHL SWAP1 POP SWAP3 SWAP2 POP POP JUMP JUMPDEST PUSH1 0x0 PUSH1 0x8 DUP4 MUL PUSH2 0x1BC4 PUSH32 0xFFFFFFFFFFFFFFFFFFFFFFFFFFFFFFFFFFFFFFFFFFFFFFFFFFFFFFFFFFFFFFFF DUP3 PUSH2 0x1B87 JUMP JUMPDEST PUSH2 0x1BCE DUP7 DUP4 PUSH2 0x1B87 JUMP JUMPDEST SWAP6 POP DUP1 NOT DUP5 AND SWAP4 POP DUP1 DUP7 AND DUP5 OR SWAP3 POP POP POP SWAP4 SWAP3 POP POP POP JUMP JUMPDEST PUSH1 0x0 DUP2 SWAP1 POP SWAP2 SWAP1 POP JUMP JUMPDEST PUSH1 0x0 PUSH2 0x1C0B PUSH2 0x1C06 PUSH2 0x1C01 DUP5 PUSH2 0xFAA JUMP JUMPDEST PUSH2 0x1BE6 JUMP JUMPDEST PUSH2 0xFAA JUMP JUMPDEST SWAP1 POP SWAP2 SWAP1 POP JUMP JUMPDEST PUSH1 0x0 DUP2 SWAP1 POP SWAP2 SWAP1 POP JUMP JUMPDEST PUSH2 0x1C25 DUP4 PUSH2 0x1BF0 JUMP JUMPDEST PUSH2 0x1C39 PUSH2 0x1C31 DUP3 PUSH2 0x1C12 JUMP JUMPDEST DUP5 DUP5 SLOAD PUSH2 0x1B94 JUMP JUMPDEST DUP3 SSTORE POP POP POP POP JUMP JUMPDEST PUSH1 0x0 SWAP1 JUMP JUMPDEST PUSH2 0x1C4E PUSH2 0x1C41 JUMP JUMPDEST PUSH2 0x1C59 DUP2 DUP5 DUP5 PUSH2 0x1C1C JUMP JUMPDEST POP POP POP JUMP JUMPDEST JUMPDEST DUP2 DUP2 LT ISZERO PUSH2 0x1C7D JUMPI PUSH2 0x1C72 PUSH1 0x0 DUP3 PUSH2 0x1C46 JUMP JUMPDEST PUSH1 0x1 DUP2 ADD SWAP1 POP PUSH2 0x1C5F JUMP JUMPDEST POP POP JUMP JUMPDEST PUSH1 0x1F DUP3 GT ISZERO PUSH2 0x1CC2 JUMPI PUSH2 0x1C93 DUP2 PUSH2 0x1B62 JUMP JUMPDEST PUSH2 0x1C9C DUP5 PUSH2 0x1B77 JUMP JUMPDEST DUP2 ADD PUSH1 0x20 DUP6 LT ISZERO PUSH2 0x1CAB JUMPI DUP2 SWAP1 POP JUMPDEST PUSH2 0x1CBF PUSH2 0x1CB7 DUP6 PUSH2 0x1B77 JUMP JUMPDEST DUP4 ADD DUP3 PUSH2 0x1C5E JUMP JUMPDEST POP POP JUMPDEST POP POP POP JUMP JUMPDEST PUSH1 0x0 DUP3 DUP3 SHR SWAP1 POP SWAP3 SWAP2 POP POP JUMP JUMPDEST PUSH1 0x0 PUSH2 0x1CE5 PUSH1 0x0 NOT DUP5 PUSH1 0x8 MUL PUSH2 0x1CC7 JUMP JUMPDEST NOT DUP1 DUP4 AND SWAP2 POP POP SWAP3 SWAP2 POP POP JUMP JUMPDEST PUSH1 0x0 PUSH2 0x1CFE DUP4 DUP4 PUSH2 0x1CD4 JUMP JUMPDEST SWAP2 POP DUP3 PUSH1 0x2 MUL DUP3 OR SWAP1 POP SWAP3 SWAP2 POP POP JUMP JUMPDEST PUSH2 0x1D17 DUP3 PUSH2 0x107A JUMP JUMPDEST PUSH8 0xFFFFFFFFFFFFFFFF DUP2 GT ISZERO PUSH2 0x1D30 JUMPI PUSH2 0x1D2F PUSH2 0x11CC JUMP JUMPDEST JUMPDEST PUSH2 0x1D3A DUP3 SLOAD PUSH2 0x1A06 JUMP JUMPDEST PUSH2 0x1D45 DUP3 DUP3 DUP6 PUSH2 0x1C81 JUMP JUMPDEST PUSH1 0x0 PUSH1 0x20 SWAP1 POP PUSH1 0x1F DUP4 GT PUSH1 0x1 DUP2 EQ PUSH2 0x1D78 JUMPI PUSH1 0x0 DUP5 ISZERO PUSH2 0x1D66 JUMPI DUP3 DUP8 ADD MLOAD SWAP1 POP JUMPDEST PUSH2 0x1D70 DUP6 DUP3 PUSH2 0x1CF2 JUMP JUMPDEST DUP7 SSTORE POP PUSH2 0x1DD8 JUMP JUMPDEST PUSH1 0x1F NOT DUP5 AND PUSH2 0x1D86 DUP7 PUSH2 0x1B62 JUMP JUMPDEST PUSH1 0x0 JUMPDEST DUP3 DUP2 LT ISZERO PUSH2 0x1DAE JUMPI DUP5 DUP10 ADD MLOAD DUP3 SSTORE PUSH1 0x1 DUP3 ADD SWAP2 POP PUSH1 0x20 DUP6 ADD SWAP5 POP PUSH1 0x20 DUP2 ADD SWAP1 POP PUSH2 0x1D89 JUMP JUMPDEST DUP7 DUP4 LT ISZERO PUSH2 0x1DCB JUMPI DUP5 DUP10 ADD MLOAD PUSH2 0x1DC7 PUSH1 0x1F DUP10 AND DUP3 PUSH2 0x1CD4 JUMP JUMPDEST DUP4 SSTORE POP JUMPDEST PUSH1 0x1 PUSH1 0x2 DUP9 MUL ADD DUP9 SSTORE POP POP POP JUMPDEST POP POP POP POP POP POP JUMP JUMPDEST PUSH32 0x4E487B7100000000000000000000000000000000000000000000000000000000 PUSH1 0x0 MSTORE PUSH1 0x11 PUSH1 0x4 MSTORE PUSH1 0x24 PUSH1 0x0 REVERT JUMPDEST PUSH1 0x0 PUSH2 0x1E1A DUP3 PUSH2 0xFAA JUMP JUMPDEST SWAP2 POP PUSH32 0xFFFFFFFFFFFFFFFFFFFFFFFFFFFFFFFFFFFFFFFFFFFFFFFFFFFFFFFFFFFFFFFF DUP3 SUB PUSH2 0x1E4C JUMPI PUSH2 0x1E4B PUSH2 0x1DE0 JUMP JUMPDEST JUMPDEST PUSH1 0x1 DUP3 ADD SWAP1 POP SWAP2 SWAP1 POP JUMP JUMPDEST PUSH1 0x0 PUSH2 0x1E62 DUP3 PUSH2 0xFAA JUMP JUMPDEST SWAP2 POP PUSH2 0x1E6D DUP4 PUSH2 0xFAA JUMP JUMPDEST SWAP3 POP DUP3 DUP3 SUB SWAP1 POP DUP2 DUP2 GT ISZERO PUSH2 0x1E85 JUMPI PUSH2 0x1E84 PUSH2 0x1DE0 JUMP JUMPDEST JUMPDEST SWAP3 SWAP2 POP POP JUMP JUMPDEST PUSH1 0x0 PUSH2 0x1EA6 PUSH2 0x1EA1 PUSH2 0x1E9C DUP5 PUSH2 0x104E JUMP JUMPDEST PUSH2 0x1BE6 JUMP JUMPDEST PUSH2 0xFAA JUMP JUMPDEST SWAP1 POP SWAP2 SWAP1 POP JUMP JUMPDEST PUSH2 0x1EB6 DUP2 PUSH2 0x1E8B JUMP JUMPDEST DUP3 MSTORE POP POP JUMP JUMPDEST PUSH1 0x0 PUSH1 0x40 DUP3 ADD SWAP1 POP DUP2 DUP2 SUB PUSH1 0x0 DUP4 ADD MSTORE PUSH2 0x1ED6 DUP2 DUP6 PUSH2 0x10D1 JUMP JUMPDEST SWAP1 POP PUSH2 0x1EE5 PUSH1 0x20 DUP4 ADD DUP5 PUSH2 0x1EAD JUMP JUMPDEST SWAP4 SWAP3 POP POP POP JUMP INVALID LOG2 PUSH5 0x6970667358 0x22 SLT KECCAK256 RETURNDATACOPY ADDMOD 0xB1 0xBB 0xB6 PUSH8 0x232DC94023F150A3 MSTORE8 SWAP16 PUSH5 0x971CFEA8D6 0xC DUP8 PUSH26 0x166DCF1B7D9C3564736F6C634300081800330000000000000000 "},"methodIdentifiers":{"addRecord(uint16,uint16,uint16,uint16,uint256,string,string)":"552bc9b5","addSession(uint16,uint16,uint16,uint16,uint256,string,string,string,string,string[],string)":"c36ef2d7","getRecord(uint256)":"03e9e609","getRecordsCount()":"505158bb","getSession(uint16,string)":"32143d8a","owner()":"8da5cb5b","records(uint256)":"34461067","recordsCount()":"eb3dbf83"}}}}}